:400000000040002011000000310700003107000080B500AF00F090FB80B584B000AF021CFB1D1A70204A3B1C0B3312781A701F4A3B1C0A3312781A700423013BFB6018E0CE
:400040001B4B1868391C0B31FA68131C5B009B18C3185B780B70164B1868391C0A31FA68131C5B009B18C3189B780B70FB68013BFB60FB68002B0ADB0D4B1968FA68131CF1
:400080005B009B185B5CFA1D12789A42D8D9094B3A1C0B3212781A60074B3A1C0A3212781A60BD4604B080BDCCF1FF0FCDF1FF0FD80000201CFF0B4020FF0B4080B500AF43
:4000C000244B12221A600C20FFF7A6FF224B0C221A60052001F0C0FB204B214A1278D2B21A60052001F0E0FE01F070FCFA235B00181C01F0B5FE012001F078FC194B1A4AE9
:400100001A601A4B8022D2051A60194B194A1A60194B194A126808218A431A60FA23DB00181C01F00DFC154B181C01F0BDFE144BC02292001A60134B134A1A60134BA622ED
:4001400012061A60124B40221A60024B00221A60BD4680BD300010402CFF0B4028FF0B40D9F1FF0F04010B40060000800C020B407C002E406A2D00006CF02E40DC050000F0
:40018000000301400000014040FF008008010B401801014080B582B000AF72B6414B00221A60FB1D00221A7023E0FB1D1A78131C5B009B185B003C4A9B183B603B681A78D5
:4001C000597809020A43997809040A43DB781B0613431A1C3B6819795B791B020B439BB2101C191C00F02CFBFB1D1A78FB1D01321A70FB1D1B78012BD7D92C4A2C4B101C13
:40020000191C00F02DFB2B4B03221A602A4B00221A602A4B00221A60294B81221A60294B8022D2031A60284B802212021A60274B01221A60264BC1221A60264B264A1A6069
:40024000264B274A1A60274B802212061A60264B992212041A60254B802292021A60244B234A1278D2B202210A43D2B21A70214B204A1278D2B20C218A43D2B204210A4364
:40028000D2B21A701A4B1A4A1278D2B216210A43D2B21A70FFF712FF00F022FBBD4602B080BDC0466CF02E40841A0100901A01009C1A01000003024000000240080004401D
:4002C00000020440080204400C0204401802044000030440080304400600D80020500F400400990024500F4030500F4038500F4000700F4001700F4010B5064C2378002B25
:4003000007D1054B002B02D0044800E000BF0123237010BDE803002000000000341A010008B5084B002B03D00748084900E000BF07480368002B03D0064B002B00D098479F
:4003400008BDC04600000000341A0100EC030020C80000200000000080B500AF012000F085FB012000F0C0FB62B601F0A9F801F0B9F8064B181C00F067FD054B181C00F092
:40038000F3FB00F0A7F9BD4680BDC04609060000D105000090B583B000AFFFF7DDFF01F02FFA00F091F801F0FFF900F0B7F9021C3B4B1A603B4B1B78022B15D13A4B1B781D
:4003C000002B11D1364B1A68384B1B68D21A384B9A4209D9374B1A78374B101C191C09F005FC314B01221A702D4B1A68334B1B68D21A334B9A4206D900F0BEF8284B1A68E5
:400400002E4B1A602AE029E001F096FFFC1D032001F08AFF031C2370BC1D01F026FA031C2370FB1D1B78032B0CD103F06FFA031C042B04D003F06AFA031C062B09D101F086
:4004400061FD06E003F062FA031C022B01D001F03FFDBB1D1B78181C01F00BFA00F05EF9021C0F4B1B689A42CED0164B1B78002B14D000F031FD00F083FA00F099FA01201C
:4004800000F0F4FA012000F02FFB002000F014FB002000F04DFB01F06BFD80E77FE7C0460404002020250020200400201C0400208813000024250020CC0000200804002053
:4004C000E70300001904002090B583B000AF00237B6001F015F9022001F020F9BC1C002001F040F9031C2380BB1C00215A5ED423DB009A422EDD1A4B1B78002B26D0194BBB
:400500001B78002B08D0174B00221A7000F006F9021C154B1A6019E000F000F9021C134B1A60124B1A68104B1B68D31A7B607B68002B07D00E48796801F000FE031CDAB21D
:400540000C4B1A70094B1A68074B1A60044B00221A7002E0024B01221A70BD4603B090BDD4000020D5000020100400201404002060EA00000C04002090B583B000AF114BCC
:400580001B78002B1BD03B1D002002211A1C00F0F7FA0D4B1A783B1D5A700C4B3C1D1A785B781B021A4300231204120C1B0C1B041343181C00210222231C00F02FFBBD467D
:4005C00003B090BD180400200C0400202425002080B582B000AF786039607B686622FF32934204D0B3225200934204D007E0054B01221A7003E0034B00221A70C046BD46C0
:4006000002B080BD1804002080B582B000AF786039607B68282B1CD004D8012B09D0262B0ED039E0422B27D0712B29D0412B17D032E0002000F05EFC002000F017FA2BE0C9
:40064000174B1B78042B03D1164B01221A7023E022E0144B01221A70134B00221A701BE000F05CF8021C114B1A60012000F0FEF9002000F039FA0FE00D4B00221A700BE0FD
:400680003B681B88002B03D1074B02221A7002E0054B03221A70C046BD4602B080BDC0462025002019040020200400201C0400201804002080B500AF054B1B681A1C0A328B
:4006C000034B1A60042001F0FBFABD4680BDC0462404002080B500AF0F4B0820191C01F025FB01F0CDF90020012101F007FA0020012101F033FA4023FF330020191C01F0C8
:4007000097FA012001F062FA082001F089FB01F08DF9BD4680BDC046B506000080B500AF024B1B68181CBD4680BDC0462404002080B500AFFEE7C04680B586B000AF224BD9
:400740007B61224B3B61204B7B6135E03B691B68FB603B695B68BB603B699B683B6000237B600CE0FB681A68BB681A60BB680433BB60FB680433FB607B6804337B607A6845
:400780003B689A42EED13B69DB683B6000237B6008E0BB6800221A60BB680433BB607B6804337B607A683B689A42F2D13B6910333B617B69013B7B617B69002BC6D101F030
:4007C0006DFDFFF7E7FDFEE701000000EC20010080B582B000AF154B144A126801218A431A6000237B600FE07B68032B04D8104B7A689200D35800E00E4B0F4A796889003B
:400800008B507B6801337B607B682F2BECD9FFF7C1FC0A4B00221A60044B044A126801210A431A60BD4602B080BDC04600001040000000003107000000000020C0000020C5
:4008400080B582B000AF786039607A683B68101C00211A1C01F060FDBD4602B080BDC04680B586B000AF7860396000233B6100237B612EE07B699B007A68D3181B68BB6062
:400880003B1C0F33BA681A70BB68FF229343BB6017E03B695B003A68D3181B781A1CBB68D3183A69520039688A1852781A703B6901333B613B1C0F331A783B1C0F33013A65
:4008C0001A703B1C0F331B78002BE2D17B6901337B617B69022BCDD9BD4606B080BDC04680B500AF0E4B802212061A600D4B03221A600D4B0D4A1A600D4B03221A600D4BDD
:40090000802212051A600C4B8022D2031A600B4B00221A60012000F013F8BD4680BDC046000030403000304080003040044004003000314000003A4000033A40000E3F407B
:4009400080B584B000AF021CFB1D1A700B4B1B68FB60FB1D1B78002B05D0FB68802212061343FB6003E0FB685B005B08FB60034BFA681A60BD4604B080BDC04680033A4072
:4009800080B582B000AF094B1B68DAB2FB1D7F218A431A70054BFA1D12781A60FB1D1B78DB09DBB2181CBD4602B080BD1002044080B500AF00F050F8054B181C00F00EF816
:4009C000032000F017F800F03DF8BD4680BDC046D509000080B500AFBD4680BD80B582B000AF7860024B7A689A64BD4602B080BD0000002090B585B000AF021CFB1D1A7052
:400A00001623FB603C1C0B3400F02FFF031C23700A4B0A4A11680A4A1140FA1D1078FA68041C9440221C0A431A603B1C0B331B78181C00F01EFFBD4605B090BD00E400E0C8
:400A4000FFFF3FFF80B500AF024B04221A60BD4680BDC04600E100E080B500AF024B04221A60BD4680BDC04680E100E080B584B000AF021CFB1D1A700E4B1B68DAB23B1C73
:400A80000F3340218A431A70FB1D1B789B01DAB240231340D9B23B1C0F333A1C0F3212780A431A70034B3A1C0F3212781A60BD4604B080BD0003044080B582B000AF021C3F
:400AC000FB1D1A70064B064A1168064A1140FA1D127892040A431A60BD4602B080BDC04608030440FFFFE3FF80B584B000AF021CFB1D1A700D4B1B68D9B23B1C0F337F22FC
:400B00000A401A70FB1D1B78DB01D9B23B1C0F333A1C0F3212780A431A70044B3A1C0F3212781A60BD4604B080BDC0460003044080B582B000AF021CFB1D1A70064B064A9C
:400B40001168064A1140FA1D127852050A431A60BD4602B080BDC04608030440FFFF1FFF80B500AFBD4680BD80B582B000AF7860024B7A681A60BD4602B080BD2804002040
:400B800080B586B000AF3A60FB1D021C1A70BB1D0A1C1A703B1C163300221A80FB1D1B78022B04D93B1C163301221A802CE0FB1D1B78012B07D11123002B04D13B1C16333C
:400BC00014221A8020E0FB1D1B78134A5B00D3185A883B1C08331A81BB1D1B789AB23B1C08339A803B1C08333A681A603B1C0833181C002101220CF0DDFA031C002B03D0BD
:400C00003B1C163301221A803B1C16331B88181CBD4606B080BDC046AC1A010090B589B000AF3C1C0C3420807B603B1C0B3319703B1C0A331A702C4B1B78022B05D03B1C3E
:400C40001E33832252001A8047E03B1C0B331B78022B04D93B1C1E3301221A803DE00F23002B13D00F235A1E2049131C9B009B189B00CB1808339B68181C00F09DF9031C52
:400C80001A1C012313409BB2002B05D13B1C1E330422FF321A8020E03B1C0B331B78144A5B00D3185A883B1C10331A813B1C10337A681A603B1C0A331B789AB23B1C1033BA
:400CC0009A803C1C1E343B1C0C333A1C10321868111C0BF0E7FD031C23803B1C1E331B88181CBD4609B090BD20250020941B0100AC1A010090B587B000AF786000237B614E
:400D00003B1C133300221A703B1C08337A6812881A803B1C083300225A607B689A890F239A421FD13B1C083300229A707B685B68181C00F041F9031C1A1C012313409BB275
:400D4000002B03D06623FF337B6102E0B3235B007B612B4B1B78DBB201229343DAB2284B1A701DE07B689A8913239A4218D13B1C083302229A707B685B681B78012B03D1E0
:400D8000B2235B007B6103E03B1C133380221A701B4B1B78DBB201229343DAB2184B1A707B69002B24D07B681A1D7B683C1C1334101C00211A1C40230CF018FA031C23703E
:400DC0003B1C13331B78002B12D10E4B1B68002B08D00C4B1B6879693A1C0832081C111C984705E0084B1B687A684C20111C98473B1C13331B78181CBD4607B090BDC046D4
:400E000028250020280400201825002080B500AF064B00221A70064B00221A70054B00221A7000F009F8BD4680BDC04628250020262500202725002080B500AF00F010FB68
:400E4000FFF78EFEBD4680BD90B585B000AF78603B1C0E3301221A80194B1B78002B04D1FFF7D4FF164B01221A707B68002B1FD0144B7A681A603C1C0E34134A134B101C53
:400E8000191C172201F082FA031C23803B1C0E331B88002B0CD10E4B01221A703C1C0E340C4B181C262115220CF06CF9031C23803B1C0E331B88181CBD4605B090BDC0460C
:400EC0003004002018250020D91100003804002020250020941B010080B500AF01F042FA01F02AFA024B00221A70BD4680BDC0462025002090B585B000AF021CFB1D1A7033
:400F0000294B1B78042B42D1284B1B78DBB21A1C042313403BD1FB1D1B78002B0BD1244B1E221A82224B5B6820221A80204B5B6830225A8010E0FB1D1B78012B0CD11C4BAB
:400F400096221A821A4B5B68C822D2001A80184B5B688022D2015A80164BFA1D12781A703C1C0E34124B181C0AF066FB031C23803B1C0E331B88002B08D10C4B1B78DBB2A0
:400F800004221343DAB2094B1A7005E004E03B1C0E33832252001A803B1C0E331B88181CBD4605B090BDC0462025002028250020380100202725002080B582B000AF78605A
:400FC0007B681B781A1C7B6801331B781B029BB213439BB2181CBD4602B080BD90B585B000AF78603B1C0F3300221A707B689A890B239A4237D17B681A1D7B683C1C0F3472
:40100000101C00211A1C40230CF0F0F8031C23703B1C0F331B78002B1DD17B685B68181CFFF7CAFF031C1A1C022313409BB2002B08D0104B1B68822251007A68081C111C33
:40104000984708E00B4B1B680622111CFF317A68081C111C9847084B1B78DBB201229343DAB2054B1A703B1C0F331B78181CBD4605B090BD182500202825002090B585B0BE
:4010800000AF78603C1C0F347B68181CFFF7A6FF031C23703B1C0F331B78002B0ED11C4B1B78DBB21A1C0123134007D03C1C0F347B68181CFFF71EFE031C2370144B1B7801
:4010C000DBB21A1C012313401FD13B1C0F331B78002B16D03B1C083312229A707B689A893B1C08331A803B1C08333A1C0F321278DA707B683A1C08321868111C0BF0B4FBC0
:4011000003E07B6818680BF017FCBD4605B090BD2825002080B582B000AF7860BD4602B080BDC04680B500AF034B00225A70024B00221A70BD4680BD2425002080B582B0DC
:4011400000AF7860BD4602B080BDC04680B500AFBD4680BD80B584B000AF78603B1C0E3300221A707B689B79002B1CD13B1C0F3300221A7012E03B1C0F331B787A68D35C15
:40118000002B04D03B1C0E3301221A700BE03B1C0F331A783B1C0F3301321A703B1C0F331B78052BE7D93B1C0E331B78181CBD4604B080BD80B582B000AF021CBB1D1A806A
:4011C000BD4602B080BDC04680B582B000AF7860BD4602B080BDC04680B584B000AF021C3960FB1D1A70904B1B78DBB201221343DAB28D4B1A70FB1D1B78712B00D9F7E047
:401200009A008A4BD3181B689F463B1C0C3308221A703B1C0C3300225A703B1C0C33181C02F0A3FB3B1C0C3301225A703B1C0C33181C02F09AFB7E4B1B68181CFFF78AFFF3
:40124000031C002B05D07A4B1B68181C01F078F80FE0784B1A78784B1A70784B1A78764B5A70774B1A78744B9A70734B181C01F067F803200AF0A2F8724B04221A70B8E0E6
:401280003B68181CFFF75AFFB3E03B681A786E4B1A70AEE0644B1B78DBB21A1C202313400ED16A4B1B78102B02D1684B0522DA70674B1A78654B101C191C0AF087F998E034
:4012C00097E03B68181CFFF77FFF92E03B68181CFFF77AFF5B4B02221A708AE0594B04221A7086E0574B1B78022B34D04E4B1B78DBB21A1C012313402DD04B4B1B78DBB27D
:401300001A1C042313400BD04E4B03221A70464B1B78DBB204229343DAB2434B1A701AE0414B1B78DBB21A1C082313400BD0454B04221A703C4B1B78DBB208229343DAB2E1
:40134000394B1A7007E03F4B1B78032B03D13D4B04221A704DE04CE03B681B88181CFFF729FF46E03A4A3B68111C1A1C0223081C111C1A1C00F0C7FF354B1B789A00354BF1
:40138000D318354A111C1A1C0423081C111C1A1C00F0B9FFFFF7DAFE2BE0FFF7C3FE28E03B685B88162B05D83B1C0E333A6852881A8003E03B1C0E3317221A803B683A1CD9
:4013C0000E321288198800230904090C1B0C1B040B43181C111C0BF053FA0AE03B68181CFFF74CFE05E03B68181CFFF793FE00E0C0460D4B1B78DBB21A1C112313400FD0B2
:40140000094B1B78DBB201229343DAB2064B1A70124B1B68FA1D11783A68081C111C9847BD4604B080BDC04628250020001F0100E40000207CF1FF0FDC0000207DF1FF0F08
:401440007BF1FF0F2025002026250020A401002024250020801B01001C2500201825002080B500AFBD4680BD80B500AF074B02221A60074B802212061A60064B00221A602F
:40148000054B03221A60BD4680BDC046D41000200000304004003040080F304080B500AF054B054A1168054A12680A43802109010A431A60BD4680BD04003040D41000204C
:4014C00080B500AF064B1B78002B04D1FFF7CCFF034B01221A70FFF7E1FFBD4680BDC046D010002080B500AF064B1B78002B04D100F00AF8034B01221A7000F0D9F8BD46D3
:4015000080BDC046D810002090B585B000AF0F20032100F031FC4F4B0F20191C00F006FC4D4B01221A604D4B4D4A1A604D4B4E4A1A604E4B4E4A1A604E4B00221A604E4BD6
:401540004E4A1A604E4B4D4A1A604E4B4D4A1268802149020A431A604B4B00221A604B4B00221A604A4B01221A604A4B1B687B607A68494B13407B607B68802292051343B3
:401580007B607B68012293437B60424B7A681A600023FB6058E00022DC239B0113407B60FB689B003D4A9B187A681A600022012313400AD0344B344A1168FA680120041CEF
:4015C0009440221C92B20A431A600022022313400AD02E4B2D4A1168FA680120041C9440221C92B20A431A60002280239B00134003D080235B00BB6002E080235B01BB6096
:40160000002280235B00134005D1254BFA6852000021D15204E0224BFA6852000021D152BB68204A53438022D2009B18002B01DA1D4C1B19DB129BB219B21C4BFA68920063
:40164000D150FB680133FB60FB68002BA3D0BD4605B090BD3918000020003A4000003A40C002005104003A408C000A8018003A400000FF071C003A4010003A400400040085
:4016800014003A4000033A4028023A4038023A4018023A4030003A40FFFFFFDF80003A403025002010270000FF0700002C25002080B500AF0A4B1B68002B0EDBC046094B66
:4016C0001B68002BFBDB064B054A1268802109060A431A600A2000F0E7FBBD4680BDC04600003A4008023A4080B500AF034B034A1268520052081A60BD4680BD00003A40BC
:4017000080B500AF024B01221A60BD4680BDC04624003A4080B500AFBD4680BD80B584B000AF78600023FB607A680323134011D00B4B1A6801231340FB60FB68002B03D11D
:401740007A6802231340F3D1FB68002B02D0044B01221A60FB68181CBD4604B080BDC04610023A4080B584B000AF78607B68002B02D0002000F06AFB7B68002B08D17B68D3
:401780009B00084A9B181B681B041B0CFB6001E00023FB60FB689BB21BB2181CBD4604B080BDC04680013A4080B500AF104B104A1268802109060A431A600E4B1B68002BCF
:4017C00011DA0D4B1A6880235B02134003D00B4B03221A7002E0094B01221A70FFF79AFFFFF782FF02E0054B00221A70BD4680BD30003A4000003A4004003A40DC10002044
:4018000080B500AF0A4B0A4A1268520052081A60084B1B78002B09D0FFF74AFF054B1B781A1C0223134001D0FFF76AFFBD4680BD30003A40DC10002080B582B000AF044B36
:401840001B687B60024B7A681A60BD4602B080BD10023A40000000000230800803D00138FDD1C046C046C0467047EFF3108072B6704780F31088704780B500AF0B4B0B4AE4
:40188000126801218A431A60094B094A126830218A4310210A431A60054B054A126807218A4301210A431A60BD4680BD00F02E4000FF2E4080B500AF0E4B0E4A12680221DA
:4018C0008A431A600C4B0C4A126807218A4302210A431A60084B084A126830218A4320210A431A60034B034A126801210A431A60BD4680BD00F02E4000FF2E4090B585B0D3
:4019000000AF78603C1C0F34FFF7AFFF031C2370094B796807220A40D104074A1068074A02400A431A603B1C0F331B78181CFFF7A0FFBD4605B090BD00010B40FFFFC7FF85
:4019400080B584B000AF78600023FB60154B154A126801210A431A60134B144A1A60144B134A1268802109020A431A607B68002B13D01023FB600DE0012000F095FA00F0FC
:4019800019F8031C002B02D00023FB6005E07B68013B7B607B68002BEED1FB68181CBD4604B080BD60F02E4078002E400220000010002E4080B500AF034B1A6801231340D6
:4019C000181CBD4680BDC0460C002E4080B500AFFFF752FF044B044A1268802109060A431A60BD4680BDC04600F02E4080B584B000AF78600C4B1A6801231340FB607B6818
:401A0000002B02D0012B03D005E0FFF735FF06E0FFF750FF03E0002000F018FAC046FB68181CBD4604B080BD00F02E4090B583B000AFFC1DFFF719FF031C2370074B074AD9
:401A40001268C02109020A431A60FB1D1B78181CFFF70FFFBD4603B090BDC04600010B4080B500AF054B1A68C0231B02134001D0012300E00023181CBD4680BD00010B4040
:401A800090B583B000AFFC1DFFF7EFFE031C23700C4B0C4A11680C4A0A408021C9010A431A60084B074A1168074A0A40802109020A431A60FB1D1B78181CFFF7DAFEBD467E
:401AC00003B090BD00010B40FF3FFFFF80B582B000AF78607B68022B02D9002000F0B6F9054B1A687B68DB000133DA4001231340181CBD4602B080BD10020B4080B584B085
:401B000000AF786039607B68022B02D9002000F09DF97B68181CFFF7D9FF031C002B18D10D4B1B687A68D2000321081C9040021CD2431340FB603A6803231A407B68DB0074
:401B4000111C99400B1CFA681343FB60024BFA681A60BD4604B080BD0C020B4080B584B000AF786039607B68002B02D07B68012B01D1012300E00023002B02D1002000F030
:401B800065F97B68181CFFF7A1FF031C002B18D10D4B1B687A68D20002320121081C9040021CD2431340FB607B68DB0002333A68111C99400B1CFA681343FB60024BFA68A9
:401BC0001A60BD4604B080BD0C020B4080B582B000AF7860154B154A11687A680A431A607A680123134006D0C0460020FFF76EFF031C002BF9D07A6880235B00134006D07B
:401C0000C0460120FFF762FF031C002BF9D07A6880235B02134006D0C0460220FFF756FF031C002BF9D0BD4602B080BD10020B4080B584B000AF786039607B68002B02D0CA
:401C40007B68012B01D1012300E00023002B02D1002000F0FBF8174B1B689B0F9B0701D1C92300E05D23181C00F01EF9124B1B68FB607B681B01114A111C99400B1CDA43F2
:401C8000FB681340FB600C4B7A68120139689140FA680A431A60074B1B689B0F9B0701D1432300E01F23181C00F0FEF8BD4604B080BDC0460C020B4008020B40FFFF0000F1
:401CC00090B585B000AF78603C1C0B34FFF7CDFD031C2370FFF7C4FE031C002B04D00123FB60FFF7CDFE01E00023FB607A680C4B13407B600B4B0B4A11680B4A11407A6852
:401D00000A431A60FB68012B01D1FFF78FFE3B1C0B331B78181CFFF7ACFDBD4605B090BD0404040010020B40FBFBFBFF80B584B000AF021C3960FB1D1A7080239B05FB6090
:401D4000FB1D1B781F2B02D9002000F07FF8FB1D1B7810339B00FA68D3181B68BB60FB1D1B7810339B00FA68D3183A681A60BB68181CBD4604B080BD90B587B000AF0A1C0A
:401D8000FB1D011C1970BB1D1A70BB1D1B78032B02D9002000F05AF8FB1D1B781F2B02D9002000F053F8FB1D1A7803231340DB0006337B613C1C1334FFF757FD031C237054
:401DC000FB1D1B789B08DBB29B0014495B181B68FB607B690322111C99400B1CDA43FB681340FB60BB1D1A787B69111C99400B1CFA681343FB60FB1D1B789B08DBB29B0057
:401E0000064A9B18FA681A603B1C13331B78181CFFF72FFDBD4607B090BDC04600E400E080B582B000AF021CFB1D1A70064BFA1D11781F220A400121081C9040021C1A606C
:401E4000BD4602B080BDC04600E100E080B582B000AF021CFB1D1A7001BEBD4602B080BD80B582B000AF786008E00C4B1B68181CFFF7F2FC7B680A4A9B187B607A68802310
:401E80001B029A42F1D8074B1B687A685343181CFFF7E2FCBD4602B080BDC046B40100200080FFFFAC01002080B582B000AF021CBB1D1A80BB1D1B88044A12785343181C30
:401EC000FFF7CAFCBD4602B080BDC046B001002090B583B000AFFC1DFFF7C7FC031C2370074B074A126804218A431A6030BFFB1D1B78181CFFF7BDFCBD4603B090BDC046A3
:401F000010ED00E090B583B000AFFC1DFFF7ADFC031C2370114B114A1268520052081A600F4B104A128892B21A600F4B0E4A126804210A431A600D4B1B683B600220FFF72A
:401F4000DDFC30BF094B3A681A60FB1D1B78181CFFF78FFCBD4603B090BDC04600000B400C000B4052F1FF0F10ED00E000010B4090B583B000AFFC1DFFF777FC031C237049
:401F8000114B114A1268802109060A431A600F4B0F4A128892B21A600E4B0E4A126804210A431A600C4B0C4A1268FF218A43F1210A431A6030BFFB1D1B78181CFFF759FC51
:401FC000BD4603B090BDC04600000B400C000B4050F1FF0F10ED00E02C000B4080B582B000AF78600A1CBB1C1A80BB1C1A887B681A60BD4602B080BD80B582B000AF786058
:402000000A1CBB1C1A80BB1C1A887B681A60BD4602B080BD80B582B000AF021CBB1D1A80BB1D1B88181CFFF73FFFBD4602B080BD80B500AF00F068F8BD4680BD80B500AF6E
:4020400000F06CF8BD4680BD80B500AF00F066F8044B181C00F024F8032000F02DF8BD4680BDC0463121000080B500AF024B181C00F004F8BD4680BD3121000080B582B0F1
:4020800000AF786000F04AF87B68181C00F008F8032000F011F800F037F8BD4602B080BD80B582B000AF7860024B7A681A67BD4602B080BD0000002090B585B000AF021C3C
:4020C000FB1D1A700623FB603C1C0B34FFF7CDFB031C23700B4B0B4A1268C021101C8843011CFA1D1078FA68041C9440221C0A431A603B1C0B331B78181CFFF7BAFBBD4695
:4021000005B090BD0CE400E080B500AF024B802252011A60BD4680BD00E100E080B500AF024B802252011A60BD4680BD80E100E080B500AF0FF06AFCBD4680BD002934D055
:402140000123002210B488422CD301242407A14204D2814202D209011B01F8E7E400A14204D2814202D249005B00F8E7884201D3401A1A434C08A04202D3001B5C082243EC
:402180008C08A04202D3001B9C082243CC08A04202D3001BDC082243002803D01B0901D00909E3E7101C10BC7047002801D00020C04307B4024802A14018029003BDC046D2
:4021C000D90000000029F0D003B5FFF7B9FF0EBC4243891A1847C046002941D010B4041C4C40A44601230022002900D54942002800D5404288422CD301242407A14204D2AC
:40220000814202D209011B01F8E7E400A14204D2814202D249005B00F8E7884201D3401A1A434C08A04202D3001B5C0822438C08A04202D3001B9C082243CC08A04202D30D
:40224000001BDC082243002803D01B0901D00909E3E7101C6446002C00D5404210BC7047002806D003DB0020C043400801E08020000607B4024802A14018029003BDC0462C
:40228000190000000029EBD003B5FFF7A7FF0EBC4243891A1847C0467047C04670B50E4B0E4D0024ED1AAD101E1CAC4204D0A300F35898470134F8E70FF006FF084B094D6E
:4022C0000024ED1AAD101E1CAC4204D0A300F35898470134F8E770BDD4200100D4200100D4200100DC20010030B50023934208D0C55C0133CC18013C2478A542F6D0281B59
:4023000000E0002030BD10B50023934203D0CC5CC4540133F9E710BD031C8218934202D019700133FAE7704710B501F093FA10BD10B501F0A5FA10BD10B500F0EFF810BDAF
:4023400010B50749044609780220002907D1204601F0C4FA002802D1204609F019F910BDCA02002010B506F0E1FB01F089FA01F0ADFA01F0CAFA00F0DBF800F0E5F80249ED
:402380000020087010BD0000B8010020F7B51F4E0024307815460F46002804D00824B76075802046FEBD002F00D1012401F068FA0098002805D0172D03D3012040028542A4
:4023C00001D90124EBE7002CE9D12946384600F023F80400E3D1706800F01CF80400DED1706800F015F80400D9D101F051FA0400D5D1009806F084FB0400D0D106F09AFB41
:402400000400CCD101203070C9E70000B80100200020704700207047F8B50D4607460026FFF722FEFFF70AFE00F056FA040065D100F0E2FB040061D13449084600F0EAFD5D
:402440000404240C5AD1A80705D0A807800F0421081A401985B2172D02D968002E3886B22B48301881B2384601F0D8F8040045D1284F03460246002825D127495E008E5B17
:40248000294610318E4207D99000C01941800221521C4170D2B215E08E420BD10020787690001D49C0194680891FC95C891C4170012012E0052A06D1164806461436418394
:4024C00002207071012014495E008E5B9100C9194E80114EB61FF65C4E705B1C521CDBB2D2B2062BC7D30B4800F084F8002C05D100F09CF807490120891E087000F0FEF912
:40250000002C01D0FF20F8BD0020F8BD61250000940C0000C60100200621010010B503480078012801D100F009FF10BDC401002010B500F0C3FB002803D100F0E3F9002830
:4025400000D0FF2010BD000010B500F0CDFB00F093FD02490020087010BD0000C40100207047000010B5011F0878034A8000105800F0F4FF10BD0000E010002010B50446ED
:4025800004498000085800F057FF002801D00470001D10BDE010002038B5044692B2C9B2684600F06FFF024AA1000098505038BDE010002070B50B49064600204C68054631
:4025C0006178002908D06188B14202D32078FFF7D5FF002804D1241D6D1CEDB2082DEFD370BD0000E801002010B5002801D0FFF7B9FF10BD70B50B4E04460025706061788C
:40260000002905D062882078121D0023FFF7C4FF6D1C241DEDB2082DF1D3024800F0F0FFB06070BDE8010020002070471CB5002469460C70142001902346054A05480CF081
:40264000A9FD04480068401C00D1FF2420461CBDA9260000F40100203EB5124A0146FF2000230124126800290DD0012914D0042908D104206946009308814B8110460CF0EF
:4026800084FD80B23EBD6846009304814381694610460CF075FDF4E768460093048143816946EBE7F401002070B54589046841680089030000F026F806240408081D212432
:4026C000002005F0F5F91BE0022908D0C8B22A4621460AF0E9FF2046FFF786FF10E002202A4621460AF0E0FF2946204600F018F806E000200CF03AFA02E020460CF0D0FDE7
:40270000002070BD30B47446641E2578641CAB4200D21D46635D5B00E31830BC18470000014B0022DB681847F801002010B542890168094B00899C68022803D0032804D08D
:40274000FF2010BD0023012003E0121D002392B20220A047002010BDF801002070477047024800214160018041807047F801002070B50C46002186B016460391012802D05C
:40278000022859D116E003A9012006F0F4F801281BD1039D324621462846FFF7B4FD0095287801900220694608814E816846FFF7BDFF41E0214D002B686809D0049004A984
:4027C000022006F0D8F801281DD0022006B070BD002812D0298840182146FFF794FD28880024801980B228806988091D884206D12C801348FFF79AFF03E00320E6E78842A3
:402800001AD96C6018E004986860E278A378110219430B4A698000231060E3565360032313815181A1788170E178C1706178417021780170042028800020C7E7F801002075
:4028400000110020F7B5022784B016460546022802D0042D29D106E005980090019568460781428113E01046FFF7A4FE040016D032460599FFF747FD684601950094078133
:402880000B4B4681DB6800223146059898470948694600680CF079FC012007B0F0BD044B0022DB683146059898470020F5E70000F8010020F4010020014AD1609060704751
:4028C000F8010020034801688068081A0A214843000970470C11002010B5FFF7B5FB542204490548FFF70FFD03490120C870002010BD0000162101005C13002010B5FFF7BD
:4029000097FB10BD0020704770B5134C2368002B08D0207B1149C20705D04008400020738868A08070BD88680B4AA18880B29268814203D90A4D691A091802E0814202D2B7
:40294000411A5118A160A080A0689842EAD300F015F80CF037FC70BD0C110020C0102E40FFFF000010B508461946FFF7A5FF10BD704710B5FFF766FF10BD00000348002118
:40298000016041608160C160704700000C11002010B502000DD0FFF7F1FF074C0321207B0843207310010A21FFF70CFC2060002010BDFF2010BD00000C11002000B50448D4
:4029C0000A21806848430209FFF7D8FF104600BD0C1100200248007B8007C00F704700000C11002070B558490868002802DA574B01221A7002229043086055480069524979
:402A0000C00B4031096A08426CD0012000F0BEFA4F4850497C30FFF7EFFA4B480E216C30FFF7EAFA4A4820218430FFF7E5FA484814219C30FFF7E0FA4548FF21C131A43075
:402A4000FFF7DAFA4248FF212F31B030FFF7D4FA3F484149BC30FFF7CFFA3D483F49AC30FFF7CAFA3D493A48491CB430FFF7C4FA37483B49B830FFF7BFFA35483949CC30E5
:402A8000FFF7BAFA324838490830FFF7B5FA30483649A830FFF7B0FA2D4835498830FFF7ABFA2B4833498C30FFF7A6FA28481921C9029030FFF7A0FA2F4D287E697E0C02C2
:402AC0000443A87FE97F2D4A090201432C48914201D1072C08D035229201914208D1042C05D005E0FF2070BD0146042400E0014617486C30FFF780FA154821467430FFF7EB
:402B00007BFAA87EE97E0902014301204003814201D0002900D11B490D487830FFF76CFA2A7F687F010218481143814204D01748814201D0052901D113490A390448803029
:402B4000FFF75AFA002070BD00F02E400802002000002E4055650000320300002F3F00003102000010520000EC160000FA12000031D000003AE30000C0F0FF0F580B000089
:402B8000580D0000022000000F0F00000505000070B50646581C80B245086D00002408E0304600F07FF81055000A1119A41C4870A4B2AC42F4D3D80705D0D0182038D15C6F
:402BC000C47FD454C17770BD30B50A4C002100195B1E07E0541864782502545C2C430480891C89B29942F5DB994201D1515C018030BD000000102E4010B5FF2000F0C6F9BA
:402C00000F49FF2088700E481021801D41800121417001700A490020091D4870FFF7E2FE04000AD100F0DAF807210648FFF7D6F9044807211830FFF7D1F9204610BD00004A
:402C400008020020CC112E4030B504465B1C1804450C002308E0204600F024F8241D59005B1CA4B250529BB2AB42F4D330BD000070B500210A4D5B1E0AE0541864782602E8
:402C8000545C344346193480001D891C80B289B29942F2DB994202D1515C4019018070BD00102E40014940180088704700102E40014A80180180704700102E4010B5084915
:402CC0000020487000F08AF807210648FFF786F9044807211830FFF781F9002010BD00000C020020CC112E4010B506480078012803D102210448FFF77FF902490020091F15
:402D0000087010BD0C02002070F02E4010B50B46062812D006DC01280CD0032801D1FFF7CDFF10BD0A28FCD00B28FAD105480078107010BDFFF760FF10BD1146184600F0E4
:402D400057F910BD0E020020F8B5214DAC6A0127A007204E002818DA3078062810D1286A384328621C480069F903084381B21A481030FFF741F9301F4770042000F006F9FE
:402D8000134802212830FFF729F9E00711D0062000F0FCF80F49FF20091F88707078002802D1686B38436863094801212830FFF715F9E0050BD53078042802D1052000F070
:402DC000E5F80348FF2101312830FFF707F9F8BD40F02E400C02002000002E4010B503212348FFF709F90120FFF714F920483038406A204C80076178800F890001431C48A6
:402E00000C38FFF7F9F86078002808D0401E022181401820FFF736FAC000083800E0B82081B21548FFF7E8F81348032109021438FFF7E2F810481149B830FFF7DDF8452160
:402E400089010F48FFF7D8F80D480321001FFFF7D3F80C490C48FFF7CFF80B480B496038FFF7CAF8084801218838FFF7C5F810BD70F02E400E020020D8102E4090890000D6
:402E8000041E2E40FF0F000058122E4020900000044800684007400F022801D0002070470120704700010B4000B5FFF7F1FF002805D009480168C908C900016000BD074853
:402EC000016A490849000162054801690122D2039143016100BD000000010B4040F02E4000002E400849087806280BD148780749002803D1486B400840004863C86A01224E
:402F00001043C862704700000C02002040F02E4001480078704700000C02002002488078022800D0012070470802002000B50300FFF7E8FB080D050D0B070507090D0120A0
:402F400000BD032000BD042000BD022000BDFF2000BD0000074A9168D26889B2064B92B2994204D105498A4201D1012100E000210170704780002E4033D000003FE30000CA
:402F800001494870704700000C02002010B50446FFF754F8072C01D9FF2C01D102480470FFF746F810BD00000C02002001498870704700000802002010B50A4A141D01284C
:402FC00008D009491046FFF717F808492046FFF713F810BD04491046891CFFF70DF80349491DF3E788002E4031D000003AE300000078074AFF2803D04C2804D9553803E060
:403000001078087070474F3808701070704700000B02002010B50F4A002313600E4A13600E4B18600E4801600E49012008600E490860000290600E490C4808600D49143031
:403040000860FF381538506000F0BEF800F0CCF9002010BD2C02002014020020400200204402002030020020200200201C120020240200203802002000207047014610B5BB
:403080000020002910D0094B1A689C685118A14209D25868196080188A0704D08A07920F891A091D196010BD002010BD14020020F8B50024164E671E321F3D4631681368AA
:4030C00006E01422624310328A58521C1BD0641C9C42F6D36A1C14D02C461422544322460C3288500C214843FFF7C8FF3168002808510AD031680020103408517068401C51
:4031000070602846F8BD2546E4E73846F8BD000024020020F3B50026F64381B000281BDB1E490968884217D80299002914D01B4F142204463F1D544325463968103548598F
:40314000401C09D0FEF77AFF38682F1F4159C359994203DBFEF76CFF3046FEBD214608310091465801590C20704308180C220299FFF7C9F80948761C001D0068C159B142A1
:4031800000D100260549009A091D865008684159491C4151FEF74CFF0020FEBD20020020002803DB07490968884202D90020C043704704491422091D096850431030085843
:4031C0007047000020020020F0B500200D4A451E0346171F50600FE014260146714314680E1DA3510C461668083433511668083435511468401C635039688842ECD30020C4
:40320000F0BD000024020020F3B50026F64381B0002841DB2349096888423DD8029900293AD0204F142204463F1D54432546396810354859401C2FD0FEF700FF3868415938
:4032400000292BD0211D009146580C21005971430F46C1190C220298FFF755F811480021001D0068761C00590C34C0190160416081600C48001D00680159B14200D1002646
:403280000849009A091D865008684159491E4151FEF7CEFE0020FEBD3046FEBDFEF7C8FEFAE7000020020020FEB504460D4600201E49089E0860471E009001900290002C50
:4032C00011D0486885420ED2002A0CD0002E0AD0642E08D808460C3001681C2068430C18207A002801D03846FEBD0120226020721846FFF7DDFE6060401C13D06681A681DB
:403300000A4827610C3067610179A94200D205710021684601810A462846029B00F040F82846FEBD00202072DDE700002C02002038B50124009400F039F838BDFEB50027AB
:40334000164EFF433D4600240EE01C20316860430818017A002906D04068FFF721FF002801D0254603E0641C3079A042EDDA681C12D01C2130684D434419FEF75FFE694600
:403380006068FFF741FF0546FEF752FE002DD9D1216868468847D5E7FEBD00003802002038B50024009400F001F838BD1FB500220C49541E0A60002811DB496888420ED8B2
:4033C00008491C220C31096850430818406801A9FFF7A0FE401C02D0002004B010BD2046FBE700002C020020F0B50021114A4D1E174611710C3F0B46BD6016E008461C24EA
:4034000060431668041D355114680646235014680836A3551468361DA353044616680A34335318301468491C255078688142E5D30020F0BD3802002038B50021009100289F
:4034400011DB0F49097888420DDA0D4D04010C3529680859002807D0201D0818694600F05FF9002801D0002038BDFEF7E7FD28680F34015D491E0155FEF7DAFD009838BDC3
:4034800048020020F7B582B00025ED43029800240E460560002A49D0002E47D02D48D21C02402D48174601780C30006805E022018258002A0FD0641CE4B28C42F7D3691CBE
:4034C0003ED02C01211D40180191314600F016F900282BD101E02546F1E71F480C30016820460C300F521C480C30016820460E300E5419480C30016820460F300E54384602
:40350000704300F0ADF814490C310968002808510CD00024009011E00F480C30016801980818009900F017F9002802D0012005B0F0BD0098C019641CE4B20090B442EBD3A0
:403540000298054905600C310879401C08710020EDE70000FCFF000048020020F8B50D4600216A468C461180002839DB23490978884235DA214B04010C3319680A59002A1E
:403580002ED020460C300B5A801C0E5C184670438018954224D3854222D2002006E007465F43BF18AF4206D0401CC0B2B042F6D36046002814D0114E271DC8190C366A468A
:4035C000294600F0F2F800280AD168460088012808D030682946C01900F0BDF8002803D00120F8BD0020F8BDFEF728FD30680F34015D491C0155FEF71BFDF3E748020020BE
:4036000003460020002B06D0034A5168906852884018511A198070474802002070B5002400F0DCF80D4E002132460C3271600EE0200113680546195013680C355953AD1C4C
:4036400013680F3059551368641C1954E4B230788442EDD31171002070BD000048020020014610B5002000290CD0C91C064B8A08596892005C888A18A24202D898685A6033
:40368000401810BD002010BD48020020F8B5002827DB19490978884223DA174C05010C342168485900281CD028460C30085A009028460E300E5C401C0E5420682F1DC01909
:4036C00000F064F800280CD12068002445590EE0094829460C300068C01900F03CF8002801D00120F8BD00982D18641CE4B2B442EED30020F8BD00004802002030B50D46F0
:4037000004000BD0A800FFF7ABFF6060002805D000202570C0436080002030BD012030BD70B50D46040005D0002D03D00220205E002801DA012070BDFEF780FC0221615E5D
:4037400060688900405828606088401E6080FEF76FFC002070BD70B50D46040007D0002D05D002212078615E401E814201DB012070BDFEF763FC6088401C00B260806168F8
:4037800080000D50FEF754FC002070BD10B5040009D0227800216068FEF7BEFD0020C0436080002010BD012010BDF0B500231D46002802D00224045F0AE00120F0BD4668D3
:4037C0009F00F6598E4201D1012503E05B1CDBB29C42F4DA15700020F0BD0000054B11221A70054A1180064A044911600549086070470000480200204A0200204C12002072
:40380000540200205002002001480078704700005C0200207CB505460024FEF789FDA8796946087000A8062229460130FEF76BFD0021684604F09AFB0C2804D0072804D017
:403840001F2804D004E0022402E0042400E0272420467CBD10B502280BD0032802D0042809D102E000F0DCF805E000F0ABF9FF2801D100F0BBF9FFF74BFBFFF757FB10BD75
:4038800010B500F0E3F9FFF743FBFFF74FFB10BD10B503240CF09EF9002810D10CF042F900280CD105F0B6F8002808D100F0A0FB002804D104F0B4FD002800D10024024939
:4038C00000200870204610BD5C020020FF20024A00211170704700005C02002070B50025044600280ED0A07901280BD8FEF720FDA0790028204602D002F0C8FF03E002F065
:403900007DFF00E00125284670BD704710B5FFF7FFFA012801D1FFF701FB10BD38B504460120002C20D0617801291DD800290BD0FF25E535FEF7FCFC2846FFF7B3F9C0B228
:403940002070072803D00EE0FF25CD35F2E70020694608706846FFF7FDFA69460878012801D108202070002038BD70B504460120002C1FD06178012902D92278092A19D8A8
:40398000002906D0FF25E53520780726092803D003E0FF25CD35F7E72670FEF7C9FC2078082808D00020FFF707FB21782846FFF77FF9002070BD0120FFF7FEFA2670F4E7D0
:4039C00070B50D46040001D0002000E00548002802D0012102F004F92946204602F066FC70BD0000D013002038B5054600200446009022466946284600F092FF00980028D1
:403A000001D00CF0C9F8A878214602F00EFAA878214602F0FDF9641CE4B2052CE9D338BDF8B5624CFFF774FA012846D160480078002842D002F0BEFB0028FAD003F0A0FF88
:403A40000028F6D05B4E7078C00703D000F03DFC0128EED0B07E0028E7D170780025002878D0000707D5AC20FFF71CF9070B00F057F9384321D14F484178684603F05EFECC
:403A80004D4F06462079B9784018C1B2B14271D802F090FB002810D0464C203402F0B7F96846008802F0E3F902F08CFA43490988884203D10120FFF769FA74E04049012091
:403AC00008703C48807B00282BD04034608A002827D0E07E002824D1A1200001FFF7E2F8208A4000B04218D97878002815D1A12424012046FFF7D6F80221884301462046A8
:403B0000FFF7D6F8FF24F1342046FFF7CBF80321090201432046FFF7CBF83878002800D03D7002F0E7F90120FFF72AFA244C08E0FEF7CEF9FFF7ECF906282CD0207800288D
:403B400029D0FFF7E5F9062825D020780128EFD021E0FFE702F02EFB002824D0142002F086F9174C0120207002F0C4F90020FFF707FA09E015E0FEF7ABF9FFF7C9F90628DB
:403B800009D02078002806D0FFF7C2F9062802D020780128EFD0207801288BD1FFF784F925700020F8BDFF20F8BD00009C13002008020020B01300206202002074020020A1
:403BC0005D02002010B50848FF244078002809D102F0F0FA012805D1FFF786F80720FFF7D5F90024204610BDB013002038B5FFF78FF9012801D0002038BD02F0DBFA002877
:403C00000AD0114C6078C00703D000F05EFB012802D0A07E002801D0FF2038BD617800290FD0684603F08AFD022806D96846008802F01DF9012002F063F90320FFF7A6F9F5
:403C4000D9E70020F7E70000B013002038B5FFF75FF9224C2178012911D0062813D0032836D007280AD100206946087002460120FFF74CF8FFF74CF90128FBD138BD207863
:403C80000128FCD038BD02F059F9FFF741F90128FBD120780128FCD0A12424012046FFF701F801210E4A83079B0F1170022BE9D15288002AE6D001432046FEF7F9FF204618
:403CC000FEF7F0FF410849002046FEF7F1FF38BD02F038F90120FFF759F938BD0902002062020020F8B50646002402F0E1FE0546304602F0F5FE00210346012632468A4077
:403D0000174610462F401840002F03D0002801D1224394B2491CC9B20529EFD32046F8BD70B500252C460A4E03E0002C01D0002000E030460079002803D02046FFF7D2FF6C
:403D40000543641C2406240EEFD0284670BD0000D01300201CB50020694648706846FFF7DDFD01AA69460A20FEF7D0FF6946042008561CBD10B50C4601F076F9002809D022
:403D80000179002906D0C1788078224602F03CFB002010BD022010BD01480078704700009C1300204030C07E002800D00120704700B500F001F800BD8821484306494018F1
:403DC0006030417F491CC9B24177052901D300214177C8B270470000B013002013B501F043F904000BD001F0CEFC002807D0214601AA0A310620FEF789FF00201CBD022053
:403E00001CBD000010B50C4601F02EF900280AD001F0B9FC002806D0224604490A20FEF775FF002010BD022010BD000085130020F3B581B0074601460026029802F030FEAB
:403E40000446002F01D0002500E0154D002D21D0284601F03FF9032C04D13946029802F049FE06463846029901F0D2FF032C06D0002C10D00121384601F04CFA03E031461D
:403E8000384602F0EBFF284601F090FE0221284601F0A6FEFEBD3846029901F0B9FFFEBDD013002070B50446002503F0DDFB002801D00C2070BD2078611C02F09FFBFF28E1
:403EC00002D01F25284670BD02F0ECFBFF2804D02178621C01F00EFFF4E70725F2E710B503F0C2FB002801D00C2010BD02F05EFB002010BD70B50D46044610210BF08CFD32
:403F00001021601806460BF087FD334610221946204603F0D5FB102130460BF07DFD02202870204604F0D4F970BD70B504464078217802028006850FE0781143A6780905FA
:403F40000002090D0643084601F08EF8002812D0022D10D0032D0ED0002E08D00179092909D0002907D0214600F0A1F870BD0089002104F0E2F820460BF00EFE70BD00201A
:403F8000704770B50446002503F06EFB002801D00C2070BD2078611C02F030FBFF2802D002F072FA00E01F25284670BD10B504F037FA00F0F6F8002010BD10B50446007884
:403FC0006178E2780843A17811430843217908436179084305D003F039FB002803D00C2010BD122010BD204602F050FC002010BD10B5044803F054FC02F050FA00F004F885
:40400000002010BD6C130020F8B5114D00266E706E736E716E76AE76EE766E75AE70EE70AE712F46EE730120B03778723F2078719B20B87100F00AFA0024204601F06AFB73
:40404000641C2406240EF8D03E72FE71AE73F8BDB013002070B505460E46084602F028FD0446304602F03CFD0121A9400A46224001400A4301D0012070BD002070BD10B534
:404080000446084602F02CFD0121A140014201D0012010BD002010BD10B5FEF739FF032804D101F04FFF0120FEF770FF10BD70B5044600790D4609281CD000281AD0204608
:4040C0004030817E491C8176204601F06FFDA078FFF76EFE064602462946204600F00CF8002806D1A0783146FFF76AFC28460BF053FD70BD0846FAE7F7B5054648780C4653
:404100008006870FC8788978000282B0014368468180284601F042FB060007D021462846049A00F091FB304605B0F0BD384600F039FC0746034601AA2946204600F0CAFA4E
:4041400068468088231DC0B20090A878FF22049902F066F8684680883B46C2B2A878049902F010FCDFE770B5002500242846FFF7B9FD060010D03046E040C007C00F07D07C
:404180002146284601F037FE21462846FFF750FE641CE4B2052CEED36D1C2D062D0EE4D070BD10B502F07AF9FFF72EFF0BF05CFD002010BDF8B5002400F081F801230128F6
:4041C00000D10124104F00203E4620360425082203E0002801D0002100E031460979002907D001290BD002290BD0114681402143CCB2401C0006000EEBD07C70F8BD1C4317
:40420000F7E72C43F5E70000B013002010B5FFF7D1FF10BD10B50B4681791943817103D08078114602F072FB10BD10B582798A43827102D1807802F081FB10BD70B5FF259F
:40424000D53502242846FEF72DFD0C4A9178002901D0022906D1137852789A18282A01D9032402E0032900D101244105490DE00201432846FEF71CFD70BD00005E020020DD
:4042800010B500F022F8002807D0012805D0032801D0042801D0002010BD012010BD014610B50020C90701D000F009F810BD014610B50020C90701D000F001F810BD10B58B
:4042C0002020FEF7EFFC000A10BD10B51820FEF7E9FC410501D5042010BD4007800F10BD38B5044640060CD5684601F03BFE0220FFF78CFF072002F0EDF96846007801F051
:4043000071F9200613D5FFF7E0FF01280FD1684601F028FE6846007800F09AFA072002F0D9F9012001F0AAFC0220FFF76FFF38BD10B5034A0178117002F0DBF9002010BDDB
:404340005E02002010B50446FFF7B9FF002801D00C2010BDA27B01211848002A827801D00A4301E05208520082706279012A0FD0C17849084900C170207901280CD061883E
:40438000208802F0D9FF2080207904280BD00DE0C2780A43C270EFE7E01D02F05FFA0848808C208002E0E01D02F058FA054920798870204602F0ACF9002010BDB0130020BC
:4043C0005C1300205E02002038B50478FFF777FF844201D10C2038BD002C18D0072069460870FFF74DFF012807D10121684600F08DF8012801D0092038BD6846007802F006
:4044000069F9FFF71BFF02F0B3F9012010E0FFF737FF012806D1684601F0A4FD6846007800F04AFA072002F055F902F095F90220FFF7ECFE002038BD10B5034A017851704B
:4044400002F03CFA002010BD5E02002038B568460BF038FB002801D01F2038BD01210098C90201804180002505714571857107214173857302F04CF9009C20220021204633
:40448000FDF74AFF25702A460021601CFDF744FF204602F02EF9204602F010FA00980BF07BFB042200210248FDF736FF002038BD5E0200200346084800B5834209D818465B
:4044C00000F0D2FD002804D00089984201D1012000BD002000BD0000FF0E0000074A9179491C8906890E917138220A4092014907090E11430843024908407047B0130020B2
:40450000FF0E0000C006C00E70470000F8B507460E4600240D4803E0002C01D0002500E005462979002905D0641C2406240EF3D00020F8BD204601F0EDF82E712046FFF7E1
:40454000CDFF28813C700120F8BD0000D013002010B503F0E9F80222002100F003F801F045FF10BD10B5094B40074907000F090F185A595A40185043C0086421FDF722FE2E
:40458000002800D1012080B210BD00006A210100F7B53D20405C88B016460C46002829D030786946087200252046FFF7FBFB012800D00125204603A938300191009023463E
:4045C0000327A17E34332A46206A03F083F902A8089900900B46019120463A4603A9243003F050F802466846007A3070204601F07DF810460BB0F0BDFFB587B00C460546A1
:404600001078694608723D20005D1746002826D000262046FFF7C6FB012800D00126204603A93830019100902346A17E34333246206A03F04FF902A80090291D01912046F1
:404640002B1D03A924300A9A03F01CF802006846007A388002D1204601F048F810460BB0F0BDF7B53C20405C88B015460C4600280CD0287869460872002806D0002620465D
:40468000FFF790FB012803D003E01F200BB0F0BD0126204603A938300191009023460327E17E34333246E06903F014F902A8089900900B46019120463A4603A9243003F07F
:4046C00013F802466846007A2870204601F018F81046DBE7FFB505463C20405C87B016460C46002810D0084601F058F801280BD0308869460883002809D000272046FFF73B
:4047000051FB012805D005E000200BB0F0BD0220FBE70127204602A93830019100902346E17E34333A46E06903F0D4F806A80090291D019120462B1D02A924300A9A02F0EB
:40474000D3FF02466846008B30806846008BA870000AE870204600F0D3FF1046D5E770B50D460446FFF71EFB01280AD0E87AA97A00020143A07801F0F7FC012808D000208D
:4047800070BD00222421204602F020FD242070BD28214C200155204600F09AFB282070BD002801D0002000E003484030C07F012800D0002070470000D013002001460020E7
:4047C00049070ED50021084B03E0002901D0002200E01A461279022A04D0491C0906090EF3D0704701207047D01300200146002049070ED50021084B03E0002901D000225B
:4048000000E01A461279022A04D0491C0906090EF3D0704701207047D013002010B5044680346068002803D00BF0CAF90020606010BD40304170704740308170704740307C
:40484000017070470171704792001018C166704770B53C2501F02CF9040004D020460021433001F021FC2946204600F0C0FB002C02D0A07801F0AEF870BD000010B500288C
:4048800001D0002000E00348002802D0008903F09AFC10BDD013002010B5002801D0002000E00448002804D00179072901D100F041F810BDD013002010B501F0F9F80028B6
:4048C00002D0807801F086F810BD00207047000070B50546008A00281ED010491122897A1140C90618D5294640314A8A098A521C4A4392B2D10800D10121540801E0621A24
:4049000094B2A042FBD9FEF77FFF012804D1298AA878224601F018FD70BD00005C13002000230B60052A04D292001018C26E0A60C366704738B5044600200090A07900281E
:4049400014D14020015D052901D00E290ED168460BF0C8F8002809D12046009902F01EFC03481021C28A2046FFF754FC38BD00005C13002010B50B4604460146184602F01A
:40498000EDF8002802D020460BF010F910BD13B5044601AA11460620FEF7B8F96846818861811CBD002800D10220704770470000F8B504462346401D543300909A1EA07862
:4049C000911E01F0DEFA25464035A88A298A8000FDF7F8FB401E81B2688A884203D96982A07802F01EF820460021433001F05CFB8020FEF757F9E88102F096FEE989891CB2
:404A00008AB26179FFF7AEFD01F0F0FC02F08CFE2A8A6179FFF7A6FD074601F0D9FC688A00280BD0FF26F1363046FEF73BF90321090201433046FEF73BF902E0002001F047
:404A4000DEFFFF206130FEF72DF96E8A002E0BD070431049FDF716FC0004000C01D0401C80B20D49488002E00B4800214180288A704381B2A07801F02FFF2837B9B22046D8
:404A800002F05EFCE98AA07801F07EFEA07801F0E2F9F8BD71020000620200207FB504468034616805460E46183108226846FDF72AFC31462031082202A8FDF724FC10216C
:404AC00068460AF0A9FF6068102108300AF0A4FF60682B46083024331022694602F0F0FD7FBD10B504460821FFF79FFB10212046FFF79BFB207905281FD006281DD00828E9
:404B00001AD12189002003F0D7FA072020712046FFF748F9014620464030012913D00E21017000210176204600F060FF2046FFF775FE2046FFF7CCFE10BD208901220021E1
:404B400003F09EFAE1E70521EAE70000FFB581B01F4604460821FFF768FB10212046FFF764FB2079082803D0092804D0042203E00422012501E009220025204600F0FAFD75
:404B8000264600204036307022712046FFF746FE0398002D02D0012808D00BE001280AD120890022029903F06BFA04E02189029803F082FA012700203076012F04D02046E9
:404BC00000F014FF05B0F0BD02983073204602F029FB054605480121C28A2046FFF71AFB002DEFD109202071ECE700005C13002070B50C460546FFF7D5F8012809D1082166
:404C00002846FFF712FB0023012221462846FFF79DFF70BD10B5044600F0ACFD2046FFF7FDFD00214034217010BD70B505461A24FFF7B8F8012809D108212846FFF7F5FA65
:404C40000023012221462846FFF780FF70BD0000F8B50446002000900E4668460AF042FF002801D00D20F8BD8420005908212030009D00F0F4F920460421383000F0EFF9FD
:404C8000002E02D1204600F0B3FD2946204602F015FA0E480821C28A2046FFF7BBFA204600F00BFF25464035002808D0204600F023F8002801D0092028700020F8BD0820D3
:404CC0002870204600F072FFF7E700005C130020014610B540310A460978082906D0092907D00A2901D100F091F810BD0B20107010BD00F001F810BD70B5044600792546BE
:404D00004035052805D0062803D008280FD00C2070BD03220621204602F058FA0D480821C28A2046FFF776FA1120287010E006202873204602F076FA0646AA8A0A20424396
:404D400001212046FFF766FA002E01D109202071002070BD5C13002038B504460020009068460AF0BFFE002801D00D2038BD2046009D00F08BF908202071204600F038FD9D
:404D80002946204602F0CCF900213D2001550F2040210855204600F009FF002038BD00B5024600F0E7FC10214032117000BD10B50446FEF7F7FF012809D04020005D112890
:404DC00005D100231A4606212046FFF7BFFE10BD10B5FFF786FE10BD38B504460021684600910AF07FFE00280CD12046009902F00EFA05480821C28A2046FFF70BFA0D20E5
:404E00004034207038BD00005C13002038B504460021684600910AF065FE002801D00D2038BD2046009902F0E7F905480821C28A2046FFF7EFF90C2040342070002038BDBF
:404E40005C13002000787047F8B50025002801D0002400E01A4C002C28D0204600F093FC002823D0207903281CD005281CD026464036B18AA07801F03DFDB078012815D1BB
:404E80000021204601F087FE274680373868002802D00AF095FE3D600020B0702079072805D007E0042000E006202071F8BD2046FFF70EFD0221204600F092FEF8BD0000B4
:404EC000D013002010B54C22115400F046F810BD10B50446FF21FFF7A8F909202071A07801F038FD10BD000038B5FF216A461180002801D0002400E0064C002C08D0114699
:404F00000620FDF703FF684601882046FFF73FFD38BD0000D013002010B504468079002809D022214C200155FF212046FFF77DF9204600F012F810BD10B503790246403266
:404F4000002B03D01173092B02D003E0002100E02221117300F001F810BDFEB504460089002701902781207926464036002817D0012815D002280AD112E002AA6946204612
:404F800001F0DAFD002807D100980AF00FFE204601F0FAFD0028F0D02046FEF725FDB776254680352868002802D00AF009FE2F606868002802D00AF003FE6F60317B002907
:404FC00002D0019800F044F8A078002100F05CFF2046FFF7BDFAA07801F0B0F8A07800F0F9FC0B20FFF712F900F038FCFEBD70B50E46054602F094FB044606702846FEF762
:40500000D1FE014601204140204661700C3001F034F8002D10D02889608028464030C1782171002E10D169796171018AE180418A2181808A608107E01820FDF733FEC005D1
:40504000C00F207100206080204602F0DEFF70BD0A4610B50146002003F0CDF810BD10B50AF0B6FA10BD000000B50146FFF74AFA002801D0002000E00348002802D0028932
:405080008A4200D0002000BDD013002038B5044680346068002806D168460AF033FD002801D100986060606838BD000010B5014600F074FB0128887802D0FEF77DFE10BD38
:4050C00088214843024940186030007F10BD0000B013002070B5054604464035A87F012811D1A1788820084A484380186030067F3046FEF7AFFF002805D10220A877A078FE
:40510000314601F0E1F870BDB01300200EB500220A216B460292198100905A811046029B00990AF0BFFD0EBD10B50E4CE079002816D0FFF718F80C48827FC17F808B00F09B
:4051400095FB01280CD10020E07100F014FF0446AC20FDF7A7FD010B02D0204600F032FA10BD000060140020B013002070477047490510B5490F0B00FDF7C4FA0607040824
:405180000C0C0F073E21FFF79DFE10BD0821FFF7D3FE10BDFFF7E1FE10BDFFF7BDFE10BDF8B507460025002D01D0002600E0204E00F096FE3046403044890021418100F08C
:4051C000B5FE304600F0DFFA01282CD1A00702D52846FFF739FEE00602D52846FFF784FEA00602D52846FFF791FF600601D500F0F1FA200602D5284600F01CF8600702D5A6
:40520000284600F023FA380402D52846FFF744FB780402D52846FFF731FBE00703D021463046FFF7A5FF6D1C2D062D0EBBD0F8BDD0130020F8B5002801D0002400E0204CD9
:40524000002C39D025464035A878012834D1E98AA07801F099FA2046FEF7A4FD01282BD002F062FA2A8A6179FFF77CF9064601F0AFF82836B1B2204602F062F8E98AA07873
:4052800001F082FAFF206130FDF70CFD6E8A0D4F0146002E11D0304648430B49FCF7F2FF0004000C01D0401C80B27880288A704381B2A07801F010FBF8BD0020F5E700002D
:4052C000D0130020620200207102000038B5002801D0002400E00D4C0020009068460AF001FC002811D12046009901F0C5FF607E02210843607606480421C28A2046FEF722
:4053000089FF0221204600F06BFC38BDD01300205C13002070B50D46124A010001D0002401E014462034002C1BD0204600F036FA01280AD18820484380186030007FFEF7B5
:4053400089FE002801D101F0F7FE20464030817E491B8176204600F029FC2089294602F0ECFE70BDB013002070B503460088FFF77BFE040013D000F006FA00280FD020793B
:40538000092819D02546997840352973204601F049FF0646A878012803D0AA8A02E0022070BDEA880A20424301212046FEF732FF002E01D109202071002070BD0EB500221F
:4053C00017216B460292198100905A810120029B00990AF067FC0EBDF8B5184E0024F079002820D10025AC20FDF75CFC000B21E0204600F075FEFDF755FC07462A46214678
:4054000000F034FA01280FD00D48012187838577C477F171002D01D0002000E02030002801D000F0C3FBF8BDAC20FDF73BFC000B641CE4B20028DBD1F8BD0000601400204D
:40544000B013002010B50088FFF70EFE002809D0014640310C460978082905D00B2903D00C2010BD022010BDFFF746FC002801D009202070002010BD70B503460088FFF7B6
:40548000F3FD040008D0254640352878082805D00B2803D00C2070BD022070BD8420005910220830991CFCF72EFF2046FFF7F6FA2878082804D02046FFF7A8FC002801D0C8
:4054C0000A202870204600F071FB002070BD000010B50C46002121700088FFF7C5FD03000BD000F050F9002807D009481121807A0840C00603D4112010BD022010BD02204B
:4055000020701A8A1889002102F092FE002010BD5C130020F8B50F46002100910088FFF7A3FD040012D000F02EF900280ED0E079410641D4617E02264A07002A08DB8907F8
:40554000402500291ADA2843E07135E00220F8BD02F0E6F80021017021894180A1898180217E4170E189C1803E7005460178134802F0C4FB284602F0FEFD1DE0204600F0E2
:4055800013F9012806D068460AF0ACFA002803D00720F8BD2A20F8BDE07900992843E071204601F069FE607E0421304360760448C28A2046FEF72EFE0020F8BD1D040000EF
:4055C0005C1300203EB500220F236C460292238100910190628169460EC900200AF062FB3EBD000070B5054600F062FA040027D003202071254600264035EE76E67020465D
:40560000FFF7D6F901F0A8F80920FEF7FFFDA07800F082FD0121204600F0E2FA2E706E70AE7000212046FFF7E2FC0749887B401C8873A078FFF74AFE012001F0BFF970BD33
:40564000284601F087F970BDB013002010B5002801D0002400E00A4C002C0FD020464030417802290AD1002141702046FEF79AFB002803D10221204600F0B2FA10BD0000D3
:40568000D013002070B503460D460088FFF7ECFC04000BD000F077F8002807D012481121807A0840C00603D4112070BD022070BD20464030418A008A491C41430804C10C7E
:4056C0005888884201D2122070BD20822079072802D12046FFF7FCF8022028702089002102F0CEFD002070BD5C130020016A491C016204D1817E491C4906490E8176704764
:40570000C169491CC16104D1C17E491C4906490EC176704770B500250646002801D0002400E0114C002C1CD0882200212046FCF7F3FDA670002026462071403630702046E0
:4057400000F018F8204601F01BFA084820820848B577807A1121084000D001202075012070BD002070BD0000D0130020B80B00005C130020002101628176C161C176203041
:405780000177417770470079002805D0012803D0022801D001207047002070474030807F002800D00120704740300078002807D0012805D0052803D00E2801D001207047E3
:4057C0000020704710B5807801F08AF9002800D0012010BD10B500F0CEFB0446AC20FDF761FA010B02D02046FFF7ECFE10BD000070B5054604464035A87F002823D1FF2056
:405800006075A0788821144A484380186030417F8823491CC9B24177A078584380186030052901D300214177A0788821484380186030467F0677A1783046FEF70BFC00289F
:4058400002D00120A87770BD0220A877A078314600F03AFD70BD0000B01300200020401C0006000EFBD0002070470000F0B515468207920F85B0C004C00E02926A4690806B
:40588000002D01D0002400E0514C002C29D0084600F026FC03906846808800280BD00298012845D0022843D003280CD03D20005D012872D086E00398FDF7F4F901462046A8
:4058C000FFF765F87EE00020029002A80AF0EAF8002807D03D20005D012876D12046FFF705FF72E06846029E8388324600210398FDF74EF90398FDF7D5F901462046FFF71C
:4059000046F8284600F0B9FA01AA21463046FEF73FFE002806D030460AF034F93D204C21085528E0F5773146204601F077FA4CE000200090278968460AF0A4F8002802D01F
:40594000002005B0F0BD6846009E8388321D00210398FDF71DF90398FDF7A4F901462046FFF715F8284600F088FA25464035287E00280CD103E02046FFF7AAFA25E001AA5F
:4059800021463046029BFEF737FE002806D030460AF0EEF83D202873EDE710E00298FFF705F8390A000101433770717068468088B070000AF0703046FFF700FD05E02046A2
:4059C000FFF794FE284600F058FA0120B9E70000D013002010B5044A917B002901D0491E9173FFF797FE10BDB0130020F8B5074606464037B87F00283DD0B0788821009062
:405A000048431F4945186035287F0099FEF737FB012831D0287F401CC4B2052C00D300240020B877FF276F772F77A87702460146009800F0C9FD717DFF2903D0304601F002
:405A400060F8777501F078FB00252F462246694630460097FEF764FF0099002902D03046FEF725FB641CE4B2052C00D300246D1CEDB2052DEAD3F8BD0320B877F8BD000038
:405A8000B013002010B502460021084B03E0002901D0002000E018460479944204D0491C0906090EF3D0002010BD0000D013002000B50120FFF7E6FF00BD10B5044601F074
:405AC0002FFE2189018080346168416061682831816002F00BFB10BDF7B50646087982B00C46092807D0A078F0770846FFF756FE012806D010E030460AF058F8022005B0C6
:405B0000F0BDA1788820284A484380186030007FFEF7A0FA012810D0A078FEF741FE01280BD037780121304601F0B3FA25462035062F36D00B2F0FD107E06846027C2146F7
:405B40003046FEF717FF0D20D9E72046FEF72AF9012801D1002028772046FFF7A7FA054604AA21463046FEF77CFD01205F2108556946087C0090A07833463A46294600F00D
:405B80004FFB69460A7CA0780323294600F0FAFEA0782946FDF714FF30460AF007F80020ADE70120D7E70000B013002010B502464032937F0021002B03D1927E002A00D0A3
:405BC0000121064AD279002A00D000210279092A00D10121807800F0FFFE10BD6014002070B50C460646FEF7DDF8002814D1012C0ED935464035A87800280DD16878022818
:405C00000AD03079092807D03046FFF7DBFD0446204600F00EFE70BD0124F9E770B50D4601280BD0082808D1A8241146B020FDF73FF829462046FDF73BF870BD2020FAE7CA
:405C400010B501460820FDF733F810BD10B50446FF20F130012C01D1FF20D530002200F006FF1020FDF71EF80349A043088001461020FDF71DF810BD6602002010B50446A6
:405C80001020FDF70FF80449A043088001461020FDF70EF810BD00006602002010B50446012802D0082C07D102E0FF20D53001E0FF20F13000F0D0FE1020FCF7F3FF0449DE
:405CC0002043088001461020FCF7F2FF10BD00006602002010B504461020FCF7E3FF04492043088001461020FCF7E2FF10BD000066020020F8B507460120B84085B2144679
:405D00000E46012229467C2000F0B1FE32462946782000F0ACFE6078217800020143E078A5780002054360792679000206430C2047430D2080013C182046FCF7B9FF241DE6
:405D400029462046FCF7B4FF201D3146FCF7B0FFF8BD401880B270478B00034310B5D10191201943C000FCF7A3FF10BD70B505460C46407829780002014341200001FCF70F
:405D800097FFE878A978000201430A48FCF790FF60782178000201438320C000FCF788FFE078A1780002014302480830FCF780FF70BD00001404000070B50D46044681B239
:405DC00001208002FCF774FF210C0448FCF770FF81202946C000FCF76BFF70BD0404000070B5054600242846FCF75CFF641CA4B2102CF8D370BD10B50C460146B020FCF7E2
:405E000057FFFF2021462D30FCF752FF10BD704710B50C460146B020FCF74AFF204600F051FE0021FCF744FF10BD70B50C46054600F005F821462846FFF7DDFF70BD10B5E6
:405E40000C460146B020FCF733FFFF2021462930FCF72EFF10BD10B50146B020FCF728FFFF20002220211D3000F001FE10BD10B50146C020FCF71CFF10BD010210B54D313A
:405E80000020FCF715FF10BD10B504020029014608D0B020FCF70CFF214675310020FCF707FF10BDB020FCF703FF512000214001FCF7FEFE00210348FCF7FAFE214676312E
:405EC000ECE70000240A000010B554210020FCF7EFFE10BD10B553210020FCF7E9FE10BD10B5034908884880FFF7C8FE10BD00006602002010B550210020FCF7D9FE10BD33
:405F000010B50E2400280CD0C420FCF7CBFE20430146C420FCF7CCFE51210020FCF7C8FE10BDC420FCF7BEFEA043F1E710B502484088FFF7CFFE10BD6602002010B5FCF76E
:405F4000D1FF10BD10B552210020FCF7B1FE10BD884201D8081A03E00022D243101A401880B2704710B504461820FCF79BFE8004400F207010BD10B5B020FCF793FEC0B2E5
:405F800010BDF8B50E4601461C461546B020FCF78FFEFF20E930FCF785FE0746FF200130FCF780FE3080FF200930FCF77BFE2880FF200530FCF776FE208079070698490F16
:405FC0000170F8BD10B5C820FCF76CFE10BD10B50C46002812D05820FCF764FE2070000A60705C20FCF75EFEA070000AE0706020FCF758FE2071000A607110BDFF20C13005
:40600000FCF750FE2070000A6070FF20C530FCF749FEA070000AE070FF20C930E8E7000000B5024A00F004F800BD0000FF7F000000B51346FFF78CFF984201D8022800D2B0
:40604000002000BD10B50146B020FCF731FE0248FCF728FE10BD0000080A000010B52420FCF720FE10BD10B50146B020FCF720FEFF202130FCF716FE10BD70B504466820F4
:40608000FCF710FE06466C20FCF70CFE05467020FCF708FE2670310A6170A570290AE1702071000A607170BD10B50446012905D01820FCF7F7FDC00B207010BD4820FCF7B2
:4060C000F1FD8007C00FF7E710B50146B020FCF7EFFD0248FCF7E6FD10BD0000280A00000120C0027047000010B50146B020FCF7DFFD0248FCF7D6FD10BD00000C0A00006C
:4061000010B50C460146B020FCF7D2FD0321A0014902401810BD00008821074B414310B5C918FF2260314A770A7700228A77114600F04AFA10BD0000B01300208822504386
:40614000074A10B58018FF21603041770177002181770448418EFF201D3000F07DFC10BDB01300205C13002010B50C460146B020FCF79EFDFF202530FCF794FD022221460A
:4061800000F002F810BD000010B50023884201D8081A03E00024E443201A4018044980B2884201D8824200D90123184610BD0000FF7F000010B5C420FCF774FD0006C00F4D
:4061C00010BD000010B50348FCF76CFDC007C00F10BD00002C0A0000F8B503465078167800020643D07895780002054350791779000288240743002900D098241946B02062
:40620000FCF756FD31462046FCF752FD201D2946FCF74EFD204608303946FCF749FDF8BDFFB581B014460D4606460A9FFFF768FF3B460021049AFCF71BFD02484019845559
:4062400005B0F0BD6A02002070B506460D4611242520A40108214001FCF72AFD2B46324600212046FCF704FD70BD70B5212405466401FFF72FFE10232A4600212046FCF7DE
:40628000F7FC70BD10B5044640782178000201438F20C000FCF70CFDE078A178000201430148FCF705FD10BD7C04000010B50C460146B020FCF7FCFC802021460143FF20E8
:4062C0002930FCF7F5FC10BD70B50D460146B020FCF7EEFCFF241D342046FCF7E3FC01090901FF202943013001432046FCF7E0FC70BDF8B500242646012807D0032802D0CC
:40630000052808D105E002240A2604E004240C2601E004240D26492701463F013846FCF7C7FC25204001FCF7BDFCC5B228462042F7D0252031464001FCF7BAFC00213846F2
:40634000FCF7B6FC2846F8BD70B50D46044601461646B020FCF7ACFC512029464001FCF7A7FC31460648FCF7A3FC032189030820FFF794FC210275310020FCF799FC70BD7B
:40638000240A000070B50D4604460146B020FCF78FFCFF2029461930FCF78AFC21024B310020FCF785FC70BD70B5491E8CB205460146B020FCF77CFCFF2021461930FCF74F
:4063C00077FC29024C310020FCF772FC70BD0000054910B5884200D908460146FF206130FCF766FC10BD0000FF0F0000054910B5884200D908460146FF206530FCF758FC63
:4064000010BD0000FF0F000070B588251446002900D098250146B020FCF74AFC2846FCF741FC2070000A6070281DFCF73BFCA070000AE07028460830FCF734FC2071000A0A
:40644000607170BD10B51446024611200B4680010021FCF7F9FB012C01D1FFF735FD10BD10B504460920C001FCF71CFC2070000A60700448FCF716FCA070000AE070FFF799
:4064800023FD10BD840400000121814010B589B200227C2000F0EBFA10BD000070B5FF210120FFF7D3FBFF210820FFF7CFFB3020FFF7E4FB80210020FCF7FAFB00221146AB
:4064C0000320FCF723FC374DFF20A98DD530FCF7EFFB0024FF26F1362146B020FCF7E8FB298F3046FCF7E4FB2046FFF727FE641C2406240EF0D0FF20A98FF930FCF7D8FBCC
:4065000028481030044600F079F9204600F0BEF900F04CF8234CB82040346188FCF7C8FBA188BC20FCF7C4FBE188C420FCF7C0FBFF20698EE130FCF7BBFBA12000210001FF
:40654000FCF7B6FB3920FFF7C5FBFFF7C3FC93200721C000FCF7ACFBFFF7B6FCE020FFF73FFCE820FFF73CFCF020FFF739FC0020FDF7EEFF618A0C48FCF79AFB0A482821D1
:40658000001DFCF795FBFF210131AC20FCF790FB832000218000FCF78BFB5B210020FCF787FB70BD5C130020140A000010B500217C20FCF77DFB00217820FCF779FB742155
:4065C0000020FCF775FB10BD70B50D4601461446B020FCF76DFBFF261D363046FCF762FB01090901FF20294301308143002C01D1102041403046FCF75BFB70BDF3B589B0B9
:40660000FF2001900D208001009048780D7800020543C8788E780002064348790979000201437C200791FCF73DFB06907820FCF739FB059074210020FCF73AFB1848002419
:40664000049026E00120A04087B20098FCF72AFB03900098FCF726FB02900098FCF722FB039A29465140029A72401143079A424011430BD10698074208D00598E040C10747
:406680000998C90F814201D1019405E0641C0498E4B20078A042D5D801980BB0F0BD00009C13002070B5FF257C20FCF7FBFA0849002401230A7805E01946A140014205D0A4
:4066C000641CE4B2A242F7D8284670BD2546FBE79C13002010B504461820FCF7E3FA0721C90288436107890C01431820FCF7E0FA10BD10B50446E020FFF772FB20782246C0
:40670000401CC3B20021E020FCF75EFA10BD000010B5044641790079042817D040000843A17B032901D8C9000843617B4A010243A079010207201143C00201431820FCF706
:40674000B7FA21881C20FCF7B3FA10BD08460149E5E700000204000010B5012000F02EF90120FFF78BFA41210020FCF7A1FA10BD10B5002000F022F90120FFF7ABFA402129
:406780000020FCF795FA10BD10B50C460146B020FCF78EFAFF2021460D30FCF789FA10BD70B50C4601461E461546B020FCF780FAE92021468000FCF77BFA75202946C000E5
:4067C000FCF776FAEB2031468000FCF771FA6C433B20A1B20001FCF76BFA70BD70B50C4601461546B020FCF763FA21468420FCF75FFA29468020FCF75BFA70BD10B50446D0
:406800004078217800020143FF20C130FCF750FAE078A17800020143FF20C530FCF748FA6079217900020143FF20C930FCF740FA10BD70B5A124054624012046FCF732FACA
:40684000012D07D041084900814202D02046FCF72FFA70BD014601221143F5E710B5044640782178000201436820FCF721FAE078A178000201436C20FCF71AFA60792179AA
:40688000000201437020FCF713FA10BD10B5044640782178000201435820FCF709FAE078A178000201435C20FCF702FA60792179000201436020FCF7FBF910BD10B5044603
:4068C000E820FFF78DFA20782246401CC3B20021E820FCF779F910BD10B50C460146B020FCF7E6F921460248FCF7E2F910BD00001C0A000010B50C460146B020FCF7D8F983
:40690000FF2021460530FCF7D3F910BD70B5054688000521FBF756FC84B22946B020FCF7C7F921460448FCF7C3F9290272310020FCF7BEF970BD0000040A000010B5044642
:406940000146B020FCF7B4F9210273310020FCF7AFF910BD10B504460146B020FCF7A8F9210270310020FCF7A3F910BD10B504460146B020FCF79CF9210271310020FCF791
:4069800097F910BDF8B505461E4614460F46084600F098F800902802A1000843304304462946B020FCF784F921460098FCF780F90148C0194655F8BD6F02002010B5044612
:4069C000B820FCF76FF98005800DA102014389B2B820FCF76DF910BD70B50D460146B020FCF766F9FF241D342046FCF75BF940218843A90101432046FCF75AF970BD70B518
:406A0000A124054624012046FCF74CF90222002D01D0104300E0904301462046FCF748F970BD70B50D460146B020FCF741F9FF2029460930FCF73CF9A12424012046FCF75F
:406A400031F90222002D01D0104300E0904301462046FCF72DF970BD70B50C460546FCF721F9204301462846FCF722F970BDF8B516460D460746FCF715F9014600202C0072
:406A800003D104E06408401C80B2E207FAD08640A9430E43B1B23846FCF70AF9F8BD0000024A1018405C8007800F70476F02002010B50146B020FCF7FBF8FF202D30FCF743
:406AC000F1F810BD8000FF30413070470246FF20052902D201484018805C70476A02002010B50146B020FCF7E3F8FF202930FCF7D9F810BD0A4600B501461046FFF7E6FFB0
:406B000000BD38B50C46054600216846009108F0E9FF002804D1009928464C7000F09EFB38BD10B5044680780021FFF72DFE01212046FFF755F810BD436E002B0CD00B608C
:406B4000014660318B781370826E4266CA788A700021816608467047FF20704710B50346446E6033002C04D0846E002C04D0FF2010BD41669A7001E08166DA70002010BD1F
:406B80000021416681667047406E002801D000207047FF20704770B50446C0790D46810610D5DF210840E07100F0BAFD0570218941804034218A8180618AC180A18A01819B
:406BC00001F0F6F970BD000010B50446FEF7E6FD01280AD1A1788820054A484380186030007FFDF737FA012801D000F0A5FA10BDB013002070B50D460446FDF7D3F8012853
:406C00001CD02079042801D0072816D1E879AE7900020643A0783146FFF7A6FA012813D03246691C204600F035FA02212046FDF700FE01212046FEF7D3FF70BD01222421D7
:406C4000204600F0C3FA70BD28214C2001552046FEF73EF970BD70B50D460646FDF77FFD002847D120213046FDF7DFFA3446687840346073E87820220002E081A978084300
:406C8000E0816879010228790843218A814203D0F1791143F1712082E8790102A8790843618A814203D0F1791143F1716082687A0102287A0843A18AE180814203D0F179EF
:406CC0001143F171A082A08A218A8000FBF77AFA401E618A80B2814200D9608201213046FDF7AAFDE87AA97A000201430022304600F0DCFA70BD0000F8B50C460546FDF741
:406D000051F8012849D0294EB07AC00709D02846403000900078002805D0102805D01F212EE01A212CE0002700E001272846FEF7ADF9002823D02E4680360822611C706806
:406D4000FBF7E1FA7068617A20300172A17A417270682146183008220B31FBF7D4FA21462846042213313430FBF7CDFA39462846FDF76EFF002810D1002F0FD012E007217A
:406D80000322284600F022FAF28A08212846FDF741FA11212846FDF752FDF8BD06212846FDF750FD009801210176F8BD5C13002010B5FDF78DFF10BD38B504460020009016
:406DC00020790D46042801D007281BD12046FCF7E9FF012817D0684608F084FE002811D10C486A78807A00991040112210402075607E082210436076204600F079F920467C
:406E0000FDF763FD38BD08222421204600F0DEF938BD00005C1300207047000070B506460D460846FEF70EF804463046FEF7ABFC00280CD0142C04D32946304600F0C7F81A
:406E400005E00549A0000A58294630469047284608F098FE70BD00007C21010070B50D460021002801D0002400E00C4C002C14D020464030C177807F032802D12046FEF7F6
:406E8000B5FD2046FFF7A0FE142D04D20449A800095820468847FEF7E1FC70BDD0130020CC21010010B5014640310C4609780E2903D1FDF751FF0120207610BD10B540214B
:406EC000095C0F2901D1FDF76AFF10BD4021095C0F2902D1002120304177704738B5044600220E4800920D46807A11210840C0060ED52046FEF758FC012809D0684608F040
:406F0000F1FD002803D12046009900F053F938BD2946204600F05BF838BD00005C13002010B51021FDF781F910BD10B54978FDF75FFE10BD10B5FDF73AFF10BD0121203095
:406F40004177704710B54021095C0C2901D1FDF743FF10BD10B54021095C0D2901D1FDF737FF10BD70B5044600790D46052803D0062801D0082802D12046FDF74BFE6878C3
:406F80004C21085509212046FDF75CFC2046FFF7C8FD2046FCF706FF0128A07805D0FFF7D9FC2046FEF702FE70BDFFF7DFFCF8E710B50446FF21FDF738F916214C20015546
:406FC000A078FFF7C7FC2046FEF7F0FD10BD70B50C460546FEF7E2FB002802D02078687570BD21782846FFF78CFD70BD70B5054648780C46032802D12846FDF716FE6078FA
:40700000122803D110212846FDF70FF970BD704738B5044600200D46009004212046FDF704F968782076E8780002A081A9780843A08168790002E08129790843E081607E17
:4070400004210843607680070CD4684608F04AFD00281CD12046009900F00EF9607E022108436076E079410611D5BF210840E07100F056FB00210090017021894180A18952
:407080008180217E4170E189C18001F074F838BD7047704770B50446C07815460A4600280AD00020E070C1B2A078FFF795F8A0782946FFF767F970BD0120F3E770B50546CD
:4070C000042008700C468420415908222031601CFBF719F929462046042238310930FBF712F90D2229462046FEF7F6FC002070BD70B5054609200C46087008220021601C6D
:40710000FBF70AF9287D607004480922C07AA07029462046FEF7E0FC002070BD5C1300200B4610B501460B20187001221846FEF7D3FC002010BD0000FEB50024164F03E041
:40714000002C01D0002500E03D462846FFF71CFD00281BD15F20405D002817D16A4601A92846FFF7E9FC002810D1019869460A7806782946FEF7B0FC022E07D1A87801217F
:40718000FFF72AFC09212846FDF75CFB641C2406240ED5D0FEBD0000D013002010B50B46122119708178D977014601221846FEF793FC10BD10B50B46132119708178D97741
:4071C000014601221846FEF787FC10BD38B50546002000900C46684608F084FC002801D0072038BD00980D210170447002222946FEF772FC002038BD0B4610B50146052095
:40720000187001221846FEF767FC002010BD0B4610B501460620187001221846FEF75CFC002010BD38B5054600200090684608F059FC002801D01F2038BD009C02202070DC
