:400000000040002011000000CD060000CD06000080B500AF00F05EFB80B584B000AF021CFB1D1A70204A3B1C0B3312781A701F4A3B1C0A3312781A700423013BFB6018E0CA
:400040001B4B1868391C0B31FA68131C5B009B18C3185B780B70164B1868391C0A31FA68131C5B009B18C3189B780B70FB68013BFB60FB68002B0ADB0D4B1968FA68131CF1
:400080005B009B185B5CFA1D12789A42D8D9094B3A1C0B3212781A60074B3A1C0A3212781A60BD4604B080BDCCF1FF0FCDF1FF0FD00000201CFF0B4020FF0B4080B500AF4B
:4000C000284B12221A600C20FFF7A6FF264B0C221A60052001F05CF9244B254A1278D2B21A60052001F006FC01F0EAF9FA235B00181C01F0DBFB012001F0F2F91D4B1E4A02
:400100001A601E4B8022D2051A601D4B1D4A1A601D4B1D4A126808218A431A60FA23DB00181C01F087F9194B181C01F0E3FB184B184A1A60184B194A1A60194B00221A6064
:40014000154B184A1A60184B802212061A60174B80221A60164B40221A60024B00221A60BD4680BD300010402CFF0B4028FF0B40D9F1FF0F04010B40060000800C020B4059
:400180007C002E406A2D00006CF02E40DC0500000004014000DF2E000000014080FF00800003014040FF008008010B402C0101401C01014080B582B000AF72B6444B00226F
:4001C0001A60FB1D00221A7023E0FB1D1A78131C5B009B185B003F4A9B183B603B681A78597809020A43997809040A43DB781B0613431A1C3B6819795B791B020B439BB21B
:40020000101C191C00F0EAFAFB1D1A78FB1D01321A70FB1D1B78012BD7D92F4A2F4B101C191C00F0EBFA2E4B802252001A802D4B01221A702C4B03221A602C4B00221A6005
:400240002B4B00221A602B4B80221A602A4B8022D2031A60294B802212021A60284BC1221A60284B284A1A60284B294A1A60294B802212061A60284B992212041A60274B69
:40028000802292021A60264B264A1A60264B264A1278D2B202210A43D2B21A70234B234A1278D2B20C218A43D2B204210A43D2B21A701D4B1C4A1278D2B216210A43D2B2FB
:4002C0001A70FFF7FBFE00F0D9FABD4602B080BD6CF02E4004140100101401002C14010000600F4002600F4000030240000002400800044000020440080204400C0204406E
:4003000000030440080304400600D80020500F400400990024500F4030500F4038500F40200120401F0F000000700F4001700F4010B5064C2378002B07D1054B002B02D054
:40034000044800E000BF0123237010BDE003002000000000F813010008B5084B002B03D00748084900E000BF07480368002B03D0064B002B00D0984708BDC0460000000004
:40038000F8130100E4030020C80000200000000080B500AF012000F0FBFA012000F036FB62B601F00BFB064B181C00F0DFFC054B181C00F06BFB00F05BF9BD4680BDC04653
:4003C000A50500006D05000090B583B000AFFFF7DFFF00F051F800F06FF9021C224B1A60214B1A68214B1B68D21A214B9A4206D900F090F81C4B1A681C4B1A6012E011E03B
:4004000001F04EFDFC1D032001F042FD031C2370BC1D00F0C6FF031C2370BB1D1B78181C00F0C3FF00F048F9021C0F4B1B689A42E6D0104B1B78002B14D000F0DFFC00F05B
:4004400031FA00F047FA012000F0A2FA012000F0DDFA002000F0C2FA002000F0FBFA01F077FAB6E7B5E7C046FC03002000040020E70300001104002080B582B000AF00237E
:400480007B60BB1C00215A5ED423DB009A422EDD1A4B1B78002B26D0194B1B78002B08D0174B00221A7000F007F9021C154B1A6019E000F001F9021C134B1A60124B1A6837
:4004C000104B1B68D31A7B607B68002B07D00F48796801F0E7FB031CDAB20D4B1A700A4B1A68084B1A60054B00221A7002E0034B01221A70BD4602B080BDC046CC00002078
:40050000CD000020080400200C04002060EA00000404002090B583B000AF114B1B78002B1BD03B1D002002211A1C00F0BBFA0D4B1A783B1D5A700C4B3C1D1A785B781B0220
:400540001A4300231204120C1B0C1B041343181C00210222231C00F0F3FABD4603B090BD10040020040400201025002080B582B000AF786039607B686622FF32934204D016
:40058000B3225200934204D007E0054B01221A7003E0034B00221A70C046BD4602B080BD1004002080B582B000AF786039607B68282B1CD004D8012B09D0262B0ED039E0AC
:4005C000422B27D0712B29D0412B17D032E0002000F022FC002000F0DBF92BE0174B1B78042B03D1164B01221A7023E022E0144B01221A70134B00221A701BE000F05CF820
:40060000021C114B1A60012000F0C2F9002000F0FDF90FE00D4B00221A700BE03B681B88002B03D1074B02221A7002E0054B03221A70C046BD4602B080BDC0460C250020A1
:400640001104002018040020140400201004002080B500AF054B1B681A1C0A32034B1A60042001F0A7F8BD4680BDC0461C04002080B500AF0F4B0820191C01F0D1F800F02D
:4006800079FF0020012100F0B3FF0020012100F0DFFF4023FF330020191C01F043F8012001F00EF8082001F0E1F800F039FFBD4680BDC0465106000080B500AF024B1B6835
:4006C000181CBD4680BDC0461C04002080B500AFFEE7C04680B586B000AF224B7B61224B3B61204B7B6135E03B691B68FB603B695B68BB603B699B683B6000237B600CE079
:40070000FB681A68BB681A60BB680433BB60FB680433FB607B6804337B607A683B689A42EED13B69DB683B6000237B6008E0BB6800221A60BB680433BB607B6804337B6027
:400740007A683B689A42F2D13B6910333B617B69013B7B617B69002BC6D101F053FBFFF733FEFEE701000000EC1A010080B582B000AF154B144A126801218A431A60002303
:400780007B600FE07B68032B04D8104B7A689200D35800E00E4B0F4A796889008B507B6801337B607B682F2BECD9FFF703FD0A4B00221A60044B044A126801210A431A60D6
:4007C000BD4602B080BDC0460000104000000000CD06000000000020C000002080B582B000AF786039607A683B68101C00211A1C01F046FBBD4602B080BDC04680B586B0BA
:4008000000AF7860396000233B6100237B612EE07B699B007A68D3181B68BB603B1C0F33BA681A70BB68FF229343BB6017E03B695B003A68D3181B781A1CBB68D3183A696B
:40084000520039688A1852781A703B6901333B613B1C0F331A783B1C0F33013A1A703B1C0F331B78002BE2D17B6901337B617B69062BCDD9BD4606B080BDC04680B500AFF9
:40088000054B03221A60054B03221A60044B00221A60BD4680BDC0463000304030003140000E3F4080B582B000AF094B1B68DAB2FB1D7F218A431A70054BFA1D12781A6068
:4008C000FB1D1B78DB09DBB2181CBD4602B080BD1002044080B500AF00F050F8054B181C00F00EF8032000F017F800F03DF8BD4680BDC046F908000080B500AFBD4680BD18
:4009000080B582B000AF7860024B7A689A64BD4602B080BD0000002090B585B000AF021CFB1D1A701623FB603C1C0B3400F039FD031C23700A4B0A4A11680A4A1140FA1DC0
:400940001078FA68041C9440221C0A431A603B1C0B331B78181C00F028FDBD4605B090BD00E400E0FFFF3FFF80B500AF024B04221A60BD4680BDC04600E100E080B500AF62
:40098000024B04221A60BD4680BDC04680E100E080B584B000AF021CFB1D1A700E4B1B68DAB23B1C0F3340218A431A70FB1D1B789B01DAB240231340D9B23B1C0F333A1C2F
:4009C0000F3212780A431A70034B3A1C0F3212781A60BD4604B080BD0003044080B582B000AF021CFB1D1A70064B064A1168064A1140FA1D127892040A431A60BD4602B0ED
:400A000080BDC04608030440FFFFE3FF80B584B000AF021CFB1D1A700D4B1B68D9B23B1C0F337F220A401A70FB1D1B78DB01D9B23B1C0F333A1C0F3212780A431A70044B06
:400A40003A1C0F3212781A60BD4604B080BDC0460003044080B582B000AF021CFB1D1A70064B064A1168064A1140FA1D127852050A431A60BD4602B080BDC0460803044003
:400A8000FFFF1FFF80B500AFBD4680BD80B582B000AF7860024B7A681A60BD4602B080BD2004002080B586B000AF3A60FB1D021C1A70BB1D0A1C1A703B1C163300221A80D1
:400AC000FB1D1B78022B04D93B1C163301221A802CE0FB1D1B78012B07D11123002B04D13B1C163314221A8020E0FB1D1B78134A5B00D3185A883B1C08331A81BB1D1B78BD
:400B00009AB23B1C08339A803B1C08333A681A603B1C0833181C002101220CF02DF8031C002B03D03B1C163301221A803B1C16331B88181CBD4606B080BDC046C81401001A
:400B400090B589B000AF3C1C0C3420807B603B1C0B3319703B1C0A331A702C4B1B78022B05D03B1C1E33832252001A8047E03B1C0B331B78022B04D93B1C1E3301221A80F6
:400B80003DE00F23002B13D00F235A1E2049131C9B009B189B00CB1808339B68181C00F09DF9031C1A1C012313409BB2002B05D13B1C1E330422FF321A8020E03B1C0B338A
:400BC0001B78144A5B00D3185A883B1C10331A813B1C10337A681A603B1C0A331B789AB23B1C10339A803C1C1E343B1C0C333A1C10321868111C0BF037FB031C23803B1CBF
:400C00001E331B88181CBD4609B090BD0C25002094150100C814010090B587B000AF786000237B613B1C133300221A703B1C08337A6812881A803B1C083300225A607B6867
:400C40009A890F239A421FD13B1C083300229A707B685B68181C00F041F9031C1A1C012313409BB2002B03D06623FF337B6102E0B3235B007B612B4B1B78DBB20122934365
:400C8000DAB2284B1A701DE07B689A8913239A4218D13B1C083302229A707B685B681B78012B03D1B2235B007B6103E03B1C133380221A701B4B1B78DBB201229343DAB2F1
:400CC000184B1A707B69002B24D07B681A1D7B683C1C1334101C00211A1C40230BF068FF031C23703B1C13331B78002B12D10E4B1B68002B08D00C4B1B6879693A1C083205
:400D0000081C111C984705E0084B1B687A684C20111C98473B1C13331B78181CBD4607B090BDC04614250020200400200425002080B500AF064B00221A70064B00221A7039
:400D4000054B00221A7000F009F8BD4680BDC04614250020122500201325002080B500AF00F010FBFFF78EFEBD4680BD90B585B000AF78603B1C0E3301221A80194B1B784A
:400D8000002B04D1FFF7D4FF164B01221A707B68002B1FD0144B7A681A603C1C0E34134A134B101C191C172201F0A4F8031C23803B1C0E331B88002B0CD10E4B01221A701D
:400DC0003C1C0E340C4B181C262115220BF0BCFE031C23803B1C0E331B88181CBD4605B090BDC0462804002004250020FD100000300400200C2500209415010080B500AF8A
:400E000001F064F801F04CF8024B00221A70BD4680BDC0460C25002090B585B000AF021CFB1D1A70294B1B78042B42D1284B1B78DBB21A1C042313403BD1FB1D1B78002B49
:400E40000BD1244B1E221A82224B5B6820221A80204B5B6830225A8010E0FB1D1B78012B0CD11C4B96221A821A4B5B68C822D2001A80184B5B688022D2015A80164BFA1D1B
:400E800012781A703C1C0E34124B181C0AF0B6F8031C23803B1C0E331B88002B08D10C4B1B78DBB204221343DAB2094B1A7005E004E03B1C0E33832252001A803B1C0E3363
:400EC0001B88181CBD4605B090BDC0460C25002014250020300100201325002080B582B000AF78607B681B781A1C7B6801331B781B029BB213439BB2181CBD4602B080BD46
:400F000090B585B000AF78603B1C0F3300221A707B689A890B239A4237D17B681A1D7B683C1C0F34101C00211A1C40230BF040FE031C23703B1C0F331B78002B1DD17B68C2
:400F40005B68181CFFF7CAFF031C1A1C022313409BB2002B08D0104B1B68822251007A68081C111C984708E00B4B1B680622111CFF317A68081C111C9847084B1B78DBB2EE
:400F800001229343DAB2054B1A703B1C0F331B78181CBD4605B090BD042500201425002090B585B000AF78603C1C0F347B68181CFFF7A6FF031C23703B1C0F331B78002B74
:400FC0000ED11C4B1B78DBB21A1C0123134007D03C1C0F347B68181CFFF71EFE031C2370144B1B78DBB21A1C012313401FD13B1C0F331B78002B16D03B1C083312229A7068
:401000007B689A893B1C08331A803B1C08333A1C0F321278DA707B683A1C08321868111C0BF004F903E07B6818680BF067F9BD4605B090BD1425002080B582B000AF78607C
:40104000BD4602B080BDC04680B500AF034B00225A70024B00221A70BD4680BD1025002080B582B000AF7860BD4602B080BDC04680B500AFBD4680BD80B584B000AF7860D2
:401080003B1C0E3300221A707B689B79002B1CD13B1C0F3300221A7012E03B1C0F331B787A68D35C002B04D03B1C0E3301221A700BE03B1C0F331A783B1C0F3301321A70B9
:4010C0003B1C0F331B78052BE7D93B1C0E331B78181CBD4604B080BD80B582B000AF021CBB1D1A80BD4602B080BDC04680B582B000AF7860BD4602B080BDC04680B584B094
:4011000000AF021C3960FB1D1A70904B1B78DBB201221343DAB28D4B1A70FB1D1B78712B00D9F7E09A008A4BD3181B689F463B1C0C3308221A703B1C0C3300225A703B1C69
:401140000C33181C02F0B5F93B1C0C3301225A703B1C0C33181C02F0ACF97E4B1B68181CFFF78AFF031C002B05D07A4B1B68181C00F09AFE0FE0784B1A78784B1A70784B02
:401180001A78764B5A70774B1A78744B9A70734B181C00F089FE032009F0F2FD724B04221A70B8E03B68181CFFF75AFFB3E03B681A786E4B1A70AEE0644B1B78DBB21A1CB8
:4011C000202313400ED16A4B1B78102B02D1684B0522DA70674B1A78654B101C191C09F0D7FE98E097E03B68181CFFF77FFF92E03B68181CFFF77AFF5B4B02221A708AE02D
:40120000594B04221A7086E0574B1B78022B34D04E4B1B78DBB21A1C012313402DD04B4B1B78DBB21A1C042313400BD04E4B03221A70464B1B78DBB204229343DAB2434BDB
:401240001A701AE0414B1B78DBB21A1C082313400BD0454B04221A703C4B1B78DBB208229343DAB2394B1A7007E03F4B1B78032B03D13D4B04221A704DE04CE03B681B8851
:40128000181CFFF729FF46E03A4A3B68111C1A1C0223081C111C1A1C00F0E9FD354B1B789A00354BD318354A111C1A1C0423081C111C1A1C00F0DBFDFFF7DAFE2BE0FFF76B
:4012C000C3FE28E03B685B88162B05D83B1C0E333A6852881A8003E03B1C0E3317221A803B683A1C0E321288198800230904090C1B0C1B040B43181C111C0AF0A3FF0AE051
:401300003B68181CFFF74CFE05E03B68181CFFF793FE00E0C0460D4B1B78DBB21A1C112313400FD0094B1B78DBB201229343DAB2064B1A70124B1B68FA1D11783A68081C3F
:40134000111C9847BD4604B080BDC0461425002000190100DC0000207CF1FF0FD40000207DF1FF0F7BF1FF0F0C250020122500209C010020102500208015010008250020F6
:401380000425002080B500AFBD4680BD000000000230800803D00138FDD1C046C046C0467047EFF3108072B6704780F31088704780B500AF0B4B0B4A126801218A431A60DE
:4013C000094B094A126830218A4310210A431A60054B054A126807218A4301210A431A60BD4680BD00F02E4000FF2E4080B500AF0E4B0E4A126802218A431A600C4B0C4A8E
:40140000126807218A4302210A431A60084B084A126830218A4320210A431A60034B034A126801210A431A60BD4680BD00F02E4000FF2E4080B584B000AF78600023FB6097
:40144000154B154A126801210A431A60134B144A1A60144B134A1268802109020A431A607B68002B13D01023FB600DE0012000F041FA00F019F8031C002B02D00023FB6018
:4014800005E07B68013B7B607B68002BEED1FB68181CBD4604B080BD60F02E4078002E400220000010002E4080B500AF034B1A6801231340181CBD4680BDC0460C002E4092
:4014C00080B500AFFFF774FF044B044A1268802109060A431A60BD4680BDC04600F02E4080B584B000AF78600C4B1A6801231340FB607B68002B02D0012B03D005E0FFF718
:4015000057FF06E0FFF772FF03E0002000F0C4F9C046FB68181CBD4604B080BD00F02E4090B583B000AFFC1DFFF73BFF031C2370074B074A1268C02109020A431A60FB1D5F
:401540001B78181CFFF731FFBD4603B090BDC04600010B4080B500AF054B1A68C0231B02134001D0012300E00023181CBD4680BD00010B4090B583B000AFFC1DFFF711FF22
:40158000031C23700C4B0C4A11680C4A0A408021C9010A431A60084B074A1168074A0A40802109020A431A60FB1D1B78181CFFF7FCFEBD4603B090BD00010B40FF3FFFFFFC
:4015C00080B582B000AF78607B68022B02D9002000F062F9054B1A687B68DB000133DA4001231340181CBD4602B080BD10020B4080B584B000AF786039607B68022B02D95B
:40160000002000F049F97B68181CFFF7D9FF031C002B18D10D4B1B687A68D2000321081C9040021CD2431340FB603A6803231A407B68DB00111C99400B1CFA681343FB6098
:40164000024BFA681A60BD4604B080BD0C020B4080B584B000AF786039607B68002B02D07B68012B01D1012300E00023002B02D1002000F011F97B68181CFFF7A1FF031C9F
:40168000002B18D10D4B1B687A68D20002320121081C9040021CD2431340FB607B68DB0002333A68111C99400B1CFA681343FB60024BFA681A60BD4604B080BD0C020B4011
:4016C00080B582B000AF7860154B154A11687A680A431A607A680123134006D0C0460020FFF76EFF031C002BF9D07A6880235B00134006D0C0460120FFF762FF031C002B7F
:40170000F9D07A6880235B02134006D0C0460220FFF756FF031C002BF9D0BD4602B080BD10020B4080B584B000AF786039607B68002B02D07B68012B01D1012300E000238F
:40174000002B02D1002000F0A7F8174B1B689B0F9B0701D1C92300E05D23181C00F0CAF8124B1B68FB607B681B01114A111C99400B1CDA43FB681340FB600C4B7A6812014B
:4017800039689140FA680A431A60074B1B689B0F9B0701D1432300E01F23181C00F0AAF8BD4604B080BDC0460C020B4008020B40FFFF000090B585B000AF78603C1C0B340F
:4017C000FFF7EFFD031C2370FFF7C4FE031C002B04D00123FB60FFF7CDFE01E00023FB607A680C4B13407B600B4B0B4A11680B4A11407A680A431A60FB68012B01D1FFF7AF
:401800008FFE3B1C0B331B78181CFFF7CEFDBD4605B090BD0404040010020B40FBFBFBFF80B584B000AF021C3960FB1D1A7080239B05FB60FB1D1B781F2B02D9002000F0B1
:401840002BF8FB1D1B7810339B00FA68D3181B68BB60FB1D1B7810339B00FA68D3183A681A60BB68181CBD4604B080BD80B582B000AF021CFB1D1A70064BFA1D11781F228C
:401880000A400121081C9040021C1A60BD4602B080BDC04600E100E080B582B000AF021CFB1D1A7001BEBD4602B080BD80B582B000AF786008E00C4B1B68181CFFF768FDB1
:4018C0007B680A4A9B187B607A6880231B029A42F1D8074B1B687A685343181CFFF758FDBD4602B080BDC046AC0100200080FFFFA401002080B582B000AF021CBB1D1A8062
:40190000BB1D1B88044A12785343181CFFF740FDBD4602B080BDC046A801002090B583B000AFFC1DFFF73DFD031C2370074B074A126804218A431A6030BFFB1D1B78181C1D
:40194000FFF733FDBD4603B090BDC04610ED00E090B583B000AFFC1DFFF723FD031C2370114B114A1268802109060A431A600F4B0F4A128892B21A600E4B0E4A1268042150
:401980000A431A600C4B0C4A1268FF218A43F1210A431A6030BFFB1D1B78181CFFF705FDBD4603B090BDC04600000B400C000B4050F1FF0F10ED00E02C000B4080B500AF7B
:4019C000064B1B78002B04D100F00AF8034B01221A7000F045F8BD4680BDC046C810002090B583B000AF1C4B1B78DAB2FB1D3F218A431A70184BFA1D127809210A43D2B230
:401A00001A70164B154A1278D2B201210A43D2B21A70FF2000F034F8FF2000F04FF87F2000F05CF8002000F069F8BC1DFFF7B9FC031C2370094B094A1278D2B210210A4383
:401A4000D2B21A70BB1D1B78181CFFF7AEFC00F027F8BD4603B090BD70000F4090000F4080B500AF054B054A1278D2B2802149420A43D2B21A70BD4680BDC04670000F404C
:401A800080B582B000AF021CFB1D1A70034BFA1D12781A70BD4602B080BDC04600000F4080B500AF01E000F043F800F037F8031C1A1C10231340F6D1BD4680BD80B582B038
:401AC00000AF021CFB1D1A70034BFA1D12781A70BD4602B080BDC04640000F4080B582B000AF021CFB1D1A70034BFA1D12781A70BD4602B080BDC04620000F4080B582B05A
:401B000000AF021CFB1D1A70034BFA1D12781A70BD4602B080BDC04680000F4080B500AF024B1B78DBB2181CBD4680BD60000F4080B500AF024B1B78DBB2181CBD4680BDBD
:401B400050000F4080B582B000AF78600A1CBB1C1A80BB1C1A887B681A60BD4602B080BD80B582B000AF78600A1CBB1C1A80BB1C1A887B681A60BD4602B080BD80B582B0C5
:401B800000AF021CBB1D1A80BB1D1B88181CFFF7B1FEBD4602B080BD80B500AF00F068F8BD4680BD80B500AF00F06CF8BD4680BD80B500AF00F066F8044B181C00F024F8F3
:401BC000032000F02DF8BD4680BDC046991C000080B500AF024B181C00F004F8BD4680BD991C000080B582B000AF786000F04AF87B68181C00F008F8032000F011F800F039
:401C000037F8BD4602B080BD80B582B000AF7860024B7A681A67BD4602B080BD0000002090B585B000AF021CFB1D1A700623FB603C1C0B34FFF7B5FB031C23700B4B0B4ACC
:401C40001268C021101C8843011CFA1D1078FA68041C9440221C0A431A603B1C0B331B78181CFFF7A2FBBD4605B090BD0CE400E080B500AF024B802252011A60BD4680BD57
:401C800000E100E080B500AF024B802252011A60BD4680BD80E100E080B500AF0FF098FBBD4680BD002934D00123002210B488422CD301242407A14204D2814202D20901E2
:401CC0001B01F8E7E400A14204D2814202D249005B00F8E7884201D3401A1A434C08A04202D3001B5C0822438C08A04202D3001B9C082243CC08A04202D3001BDC08224390
:401D0000002803D01B0901D00909E3E7101C10BC7047002801D00020C04307B4024802A14018029003BDC046D90000000029F0D003B5FFF7B9FF0EBC4243891A1847C04635
:401D4000002941D010B4041C4C40A44601230022002900D54942002800D5404288422CD301242407A14204D2814202D209011B01F8E7E400A14204D2814202D249005B003B
:401D8000F8E7884201D3401A1A434C08A04202D3001B5C0822438C08A04202D3001B9C082243CC08A04202D3001BDC082243002803D01B0901D00909E3E7101C6446002CD4
:401DC00000D5404210BC7047002806D003DB0020C043400801E08020000607B4024802A14018029003BDC046190000000029EBD003B5FFF7A7FF0EBC4243891A1847C0463B
:401E00007047C04670B50E4B0E4D0024ED1AAD101E1CAC4204D0A300F35898470134F8E70FF052FE084B094D0024ED1AAD101E1CAC4204D0A300F35898470134F8E770BD5D
:401E4000D41A0100D41A0100D41A0100DC1A010030B50023934208D0C55C0133CC18013C2478A542F6D0281B00E0002030BD10B50023934203D0CC5CC4540133F9E710BD49
:401E8000031C8218934202D019700133FAE7704710B501F08BFA10BD10B501F09DFA10BD10B500F0EFF810BD10B50749044609780220002907D1204601F0BCFA002802D1D7
:401EC000204609F047F810BDC202002010B506F0D1FB01F081FA01F0A5FA01F0C2FA00F0DBF800F0E5F802490020087010BD0000B0010020F7B51F4E0024307815460F46BD
:401F0000002804D00824B76075802046FEBD002F00D1012401F060FA0098002805D0172D03D301204002854201D90124EBE7002CE9D12946384600F023F80400E3D17068C4
:401F400000F01CF80400DED1706800F015F80400D9D101F049FA0400D5D1009806F074FB0400D0D106F08AFB0400CCD101203070C9E70000B001002000207047002070479B
:401F8000F8B50D4607460026FFF722FEFFF70AFE00F056FA040065D100F0E2FB040061D13449084600F0E2FD0404240C5AD1A80705D0A807800F0421081A401985B2172D43
:401FC00002D968002E3886B22B48301881B2384601F0D0F8040045D1284F03460246002825D127495E008E5B294610318E4207D99000C01941800221521C4170D2B215E09F
:402000008E420BD10020787690001D49C0194680891FC95C891C4170012012E0052A06D1164806461436418302207071012014495E008E5B9100C9194E80114EB61FF65CCE
:402040004E705B1C521CDBB2D2B2062BC7D30B4800F084F8002C05D100F09CF807490120891E087000F0FEF9002C01D0FF20F8BD0020F8BDC9200000940C0000BE01002017
:40208000061B010010B503480078012801D100F001FF10BDBC01002010B500F0C3FB002803D100F0E3F9002800D0FF2010BD000010B500F0CDFB00F08BFD024900200870EA
:4020C00010BD0000BC0100207047000010B5011F0878034A8000105800F0ECFF10BD0000CC10002010B5044604498000085800F04FFF002801D00470001D10BDCC10002074
:4021000038B5044692B2C9B2684600F067FF024AA1000098505038BDCC10002070B50B49064600204C6805466178002908D06188B14202D32078FFF7D5FF002804D1241D80
:402140006D1CEDB2082DEFD370BD0000E001002010B5002801D0FFF7B9FF10BD70B50B4E0446002570606178002905D062882078121D0023FFF7C4FF6D1C241DEDB2082D1A
:40218000F1D3024800F0E8FFB06070BDE0010020002070471CB5002469460C70142001902346054A05480CF0D7FC04480068401C00D1FF2420461CBD11220000EC010020E9
:4021C0003EB5124A0146FF2000230124126800290DD0012914D0042908D104206946009308814B8110460CF0B2FC80B23EBD6846009304814381694610460CF0A3FCF4E761
:4022000068460093048143816946EBE7EC01002070B54589046841680089030000F026F806240408081D2124002005F0E5F91BE0022908D0C8B22A4621460AF017FF20468C
:40224000FFF786FF10E002202A4621460AF00EFF2946204600F018F806E000200CF068F902E020460CF0FEFC002070BD30B47446641E2578641CAB4200D21D46635D5B00B6
:40228000E31830BC18470000014B0022DB681847F001002010B542890168094B00899C68022803D0032804D0FF2010BD0023012003E0121D002392B20220A047002010BD42
:4022C000F001002070477047024800214160018041807047F001002070B50C46002186B016460391012802D0022859D116E003A9012006F0E4F801281BD1039D3246214613
:402300002846FFF7B4FD0095287801900220694608814E816846FFF7BDFF41E0214D002B686809D0049004A9022006F0C8F801281DD0022006B070BD002812D0298840188F
:402340002146FFF794FD28880024801980B228806988091D884206D12C801348FFF79AFF03E00320E6E788421AD96C6018E004986860E278A378110219430B4A69800023DD
:402380001060E3565360032313815181A1788170E178C1706178417021780170042028800020C7E7F0010020EC100020F7B5022784B016460546022802D0042D29D106E089
:4023C00005980090019568460781428113E01046FFF7A4FE040016D032460599FFF747FD68460195009407810B4B4681DB6800223146059898470948694600680CF0A7FB2B
:40240000012007B0F0BD044B0022DB683146059898470020F5E70000F0010020EC010020014AD16090607047F0010020034801688068081A0A21484300097047F8100020C6
:4024400010B5FFF7B5FB542204490548FFF70FFD03490120C870002010BD0000161B01004813002010B5FFF797FB10BD0020704770B5134C2368002B08D0207B1149C207DF
:4024800005D04008400020738868A08070BD88680B4AA18880B29268814203D90A4D691A091802E0814202D2411A5118A160A080A0689842EAD300F015F80CF065FB70BD38
:4024C000F8100020C0102E40FFFF000010B508461946FFF7A5FF10BD704710B5FFF766FF10BD000003480021016041608160C16070470000F810002010B502000DD0FFF712
:40250000F1FF074C0321207B0843207310010A21FFF70CFC2060002010BDFF2010BD0000F810002000B504480A21806848430209FFF7D8FF104600BDF81000200248007B89
:402540008007C00F70470000F810002070B558490868002802DA574B01221A70022290430860554800695249C00B4031096A08426CD0012000F0B6FA4F4850497C30FFF7D5
:40258000EFFA4B480E216C30FFF7EAFA4A4820218430FFF7E5FA484814219C30FFF7E0FA4548FF21C131A430FFF7DAFA4248FF212F31B030FFF7D4FA3F484149BC30FFF75F
:4025C000CFFA3D483F49AC30FFF7CAFA3D493A48491CB430FFF7C4FA37483B49B830FFF7BFFA35483949CC30FFF7BAFA324838490830FFF7B5FA30483649A830FFF7B0FAE4
:402600002D4835498830FFF7ABFA2B4833498C30FFF7A6FA28481921C9029030FFF7A0FA2F4D287E697E0C020443A87FE97F2D4A090201432C48914201D1072C08D0352220
:402640009201914208D1042C05D005E0FF2070BD0146042400E0014617486C30FFF780FA154821467430FFF77BFAA87EE97E0902014301204003814201D0002900D11B49DF
:402680000D487830FFF76CFA2A7F687F010218481143814204D01748814201D0052901D113490A3904488030FFF75AFA002070BD00F02E400002002000002E405565000016
:4026C000320300002F3F00003102000010520000EC160000FA12000031D000003AE30000C0F0FF0F580B0000580D0000022000000F0F00000505000070B50646581C80B28F
:4027000045086D00002408E0304600F07FF81055000A1119A41C4870A4B2AC42F4D3D80705D0D0182038D15CC47FD454C17770BD30B50A4C002100195B1E07E054186478CC
:402740002502545C2C430480891C89B29942F5DB994201D1515C018030BD000000102E4010B5FF2000F0BEF90F49FF2088700E481021801D41800121417001700A49002028
:40278000091D4870FFF7E2FE04000AD100F0DAF807210648FFF7D6F9044807211830FFF7D1F9204610BD000000020020CC112E4030B504465B1C1804450C002308E02046E9
:4027C00000F024F8241D59005B1CA4B250529BB2AB42F4D330BD000070B500210A4D5B1E0AE0541864782602545C344346193480001D891C80B289B29942F2DB994202D1A7
:40280000515C4019018070BD00102E40014940180088704700102E40014A80180180704700102E4010B508490020487000F08AF807210648FFF786F9044807211830FFF771
:4028400081F9002010BD000004020020CC112E4010B506480078012803D102210448FFF77FF902490020091F087010BD0402002070F02E4010B50B46062812D006DC01281E
:402880000CD0032801D1FFF7CDFF10BD0A28FCD00B28FAD105480078107010BDFFF760FF10BD1146184600F04FF910BD06020020F8B5214DAC6A0127A007204E002818DA16
:4028C0003078062810D1286A384328621C480069F903084381B21A481030FFF741F9301F4770042000F0FEF8134802212830FFF729F9E00711D0062000F0F4F80F49FF2032
:40290000091F88707078002802D1686B38436863094801212830FFF715F9E0050BD53078042802D1052000F0DDF80348FF2101312830FFF707F9F8BD40F02E4004020020F2
:4029400000002E4010B503212348FFF709F90120FFF714F920483038406A204C80076178800F890001431C480C38FFF7F9F86078002808D0401E022181401820FFF736FAD0
:40298000C000083800E0B82081B21548FFF7E8F81348032109021438FFF7E2F810481149B830FFF7DDF8452189010F48FFF7D8F80D480321001FFFF7D3F80C490C48FFF7E9
:4029C000CFF80B480B496038FFF7CAF8084801218838FFF7C5F810BD70F02E4006020020D8102E4090890000041E2E40FF0F000058122E4020900000044800684007400F92
:402A0000022801D0002070470120704700010B4000B5FFF7F1FF002805D009480168C908C900016000BD0748016A490849000162054801690122D2039143016100BD00003D
:402A400000010B4040F02E4000002E400849087806280BD148780749002803D1486B400840004863C86A01221043C862704700000402002040F02E4001480078704700006C
:402A80000402002000B50300FFF7F0FB080D050D0B070507090D012000BD032000BD042000BD022000BDFF2000BD0000074A9168D26889B2064B92B2994204D105498A4284
:402AC00001D1012100E000210170704780002E4033D000003FE3000001494870704700000402002010B50446FFF75CF8072C01D9FF2C01D102480470FFF74EF810BD00009D
:402B00000402002001498870704700000002002010B50A4A141D012808D009491046FFF71FF808492046FFF71BF810BD04491046891CFFF715F80349491DF3E788002E40FA
:402B400031D000003AE300000078074AFF2803D04C2804D9553803E01078087070474F3808701070704700000302002010B50F4A002313600E4A13600E4B18600E4801609A
:402B80000E49012008600E490860000290600E490C4808600D4914300860FF381538506000F0BEF800F0CCF9002010BD240200200C020020380200203C020020280200207D
:402BC00018020020081200201C0200203002002000207047014610B50020002910D0094B1A689C685118A14209D25868196080188A0704D08A07920F891A091D196010BD4D
:402C0000002010BD0C020020F8B50024164E671E321F3D463168136806E01422624310328A58521C1BD0641C9C42F6D36A1C14D02C461422544322460C3288500C21484393
:402C4000FFF7C8FF3168002808510AD031680020103408517068401C70602846F8BD2546E4E73846F8BD00001C020020F3B50026F64381B000281BDB1E490968884217D898
:402C80000299002914D01B4F142204463F1D54432546396810354859401C09D0FEF782FF38682F1F4159C359994203DBFEF774FF3046FEBD214608310091465801590C20A7
:402CC000704308180C220299FFF7D1F80948761C001D0068C159B14200D100260549009A091D865008684159491C4151FEF754FF0020FEBD18020020002803DB0749096804
:402D0000884202D90020C043704704491422091D09685043103008587047000018020020F0B500200D4A451E0346171F50600FE014260146714314680E1DA3510C46166899
:402D4000083433511668083435511468401C635039688842ECD30020F0BD00001C020020F3B50026F64381B0002841DB2349096888423DD8029900293AD0204F142204469E
:402D80003F1D54432546396810354859401C2FD0FEF708FF3868415900292BD0211D009146580C21005971430F46C1190C220298FFF75DF811480021001D0068761C0059A6
:402DC0000C34C0190160416081600C48001D00680159B14200D100260849009A091D865008684159491E4151FEF7D6FE0020FEBD3046FEBDFEF7D0FEFAE70000180200201D
:402E0000FEB504460D4600201E49089E0860471E009001900290002C11D0486885420ED2002A0CD0002E0AD0642E08D808460C3001681C2068430C18207A002801D03846A2
:402E4000FEBD0120226020721846FFF7DDFE6060401C13D06681A6810A4827610C3067610179A94200D205710021684601810A462846029B00F040F82846FEBD00202072EC
:402E8000DDE700002402002038B50124009400F039F838BDFEB50027164EFF433D4600240EE01C20316860430818017A002906D04068FFF721FF002801D0254603E0641CA0
:402EC0003079A042EDDA681C12D01C2130684D434419FEF767FE69466068FFF741FF0546FEF75AFE002DD9D1216868468847D5E7FEBD00003002002038B50024009400F07E
:402F000001F838BD1FB500220C49541E0A60002811DB496888420ED808491C220C31096850430818406801A9FFF7A0FE401C02D0002004B010BD2046FBE7000024020020D4
:402F4000F0B50021114A4D1E174611710C3F0B46BD6016E008461C2460431668041D355114680646235014680836A3551468361DA353044616680A34335318301468491C7A
:402F8000255078688142E5D30020F0BD3002002038B500210091002811DB0F49097888420DDA0D4D04010C3529680859002807D0201D0818694600F05FF9002801D00020E7
:402FC00038BDFEF7EFFD28680F34015D491E0155FEF7E2FD009838BD40020020F7B582B00025ED43029800240E460560002A49D0002E47D02D48D21C02402D481746017828
:403000000C30006805E022018258002A0FD0641CE4B28C42F7D3691C3ED02C01211D40180191314600F016F900282BD101E02546F1E71F480C30016820460C300F521C483A
:403040000C30016820460E300E5419480C30016820460F300E543846704300F0ADF814490C310968002808510CD00024009011E00F480C30016801980818009900F017F977
:40308000002802D0012005B0F0BD0098C019641CE4B20090B442EBD30298054905600C310879401C08710020EDE70000FCFF000040020020F8B50D4600216A468C46118063
:4030C000002839DB23490978884235DA214B04010C3319680A59002A2ED020460C300B5A801C0E5C184670438018954224D3854222D2002006E007465F43BF18AF4206D040
:40310000401CC0B2B042F6D36046002814D0114E271DC8190C366A46294600F0F2F800280AD168460088012808D030682946C01900F0BDF8002803D00120F8BD0020F8BD30
:40314000FEF730FD30680F34015D491C0155FEF723FDF3E74002002003460020002B06D0034A5168906852884018511A198070474002002070B5002400F0DCF80D4E0021A8
:4031800032460C3271600EE0200113680546195013680C355953AD1C13680F3059551368641C1954E4B230788442EDD31171002070BD000040020020014610B500200029FF
:4031C0000CD0C91C064B8A08596892005C888A18A24202D898685A60401810BD002010BD40020020F8B5002827DB19490978884223DA174C05010C342168485900281CD0FE
:4032000028460C30085A009028460E300E5C401C0E5420682F1DC01900F064F800280CD12068002445590EE0094829460C300068C01900F03CF8002801D00120F8BD009820
:403240002D18641CE4B2B442EED30020F8BD00004002002030B50D4604000BD0A800FFF7ABFF6060002805D000202570C0436080002030BD012030BD70B50D46040005D0E5
:40328000002D03D00220205E002801DA012070BDFEF788FC0221615E60688900405828606088401E6080FEF777FC002070BD70B50D46040007D0002D05D002212078615EA7
:4032C000401E814201DB012070BDFEF76BFC6088401C00B26080616880000D50FEF75CFC002070BD10B5040009D0227800216068FEF7C6FD0020C0436080002010BD012023
:4033000010BDF0B500231D46002802D00224045F0AE00120F0BD46689F00F6598E4201D1012503E05B1CDBB29C42F4DA15700020F0BD0000054B11221A70054A1180064AD4
:403340000449116005490860704700004002002042020020381200204C020020480200200148007870470000540200207CB505460024FEF791FDA8796946087000A80622F1
:4033800029460130FEF773FD0021684604F092FB0C2804D0072804D01F2804D004E0022402E0042400E0272420467CBD10B502280BD0032802D0042809D102E000F0D4F849
:4033C00005E000F0A3F9FF2801D100F0B3F9FFF753FBFFF757FB10BD10B500F0DBF9FFF74BFBFFF74FFB10BD10B503240CF0D4F8002810D10CF078F800280CD105F0AEF8D3
:40340000002808D100F098FB002804D104F0ACFD002800D10024024900200870204610BD54020020FF20024A00211170704700005402002070B50025044600280ED0A079D8
:4034400001280BD8FEF728FDA0790028204602D002F0C0FF03E002F075FF00E00125284670BD704738B504460120002C20D0617801291DD800290BD0FF25E535FEF70CFDAF
:403480002846FFF7C3F9C0B22070072803D00EE0FF25CD35F2E70020694608706846FFF705FB69460878012801D108202070002038BD70B504460120002C1FD0617801296B
:4034C00002D92278092A19D8002906D0FF25E53520780726092803D003E0FF25CD35F7E72670FEF7D9FC2078082808D00020FFF70FFB21782846FFF78FF9002070BD012033
:40350000FFF706FB2670F4E770B50D46040001D0002000E00548002802D0012102F004F92946204602F066FC70BD0000BC13002038B5054600200446009022466946284682
:4035400000F092FF0098002801D00CF007F8A878214602F00EFAA878214602F0FDF9641CE4B2052CE9D338BDF8B5624CFFF784FA012846D160480078002842D002F0BEFB42
:403580000028FAD003F0A0FF0028F6D05B4E7078C00703D000F03DFC0128EED0B07E0028E7D170780025002878D0000707D5AC20FFF72CF9070B00F057F9384321D14F48B3
:4035C0004178684603F05EFE4D4F06462079B9784018C1B2B14271D802F090FB002810D0464C203402F0B7F96846008802F0E3F902F08CFA43490988884203D10120FFF701
:4036000071FA74E04049012008703C48807B00282BD04034608A002827D0E07E002824D1A1200001FFF7F2F8208A4000B04218D97878002815D1A12424012046FFF7E6F87E
:403640000221884301462046FFF7E6F8FF24F1342046FFF7DBF80321090201432046FFF7DBF83878002800D03D7002F0E7F90120FFF732FA244C08E0FEF750F9FFF7FCF9D7
:4036800006282CD02078002829D0FFF7F5F9062825D020780128EFD021E0FFE702F02EFB002824D0142002F086F9174C0120207002F0C4F90020FFF70FFA09E015E0FEF728
:4036C0002DF9FFF7D9F9062809D02078002806D0FFF7D2F9062802D020780128EFD0207801288BD1FFF794F925700020F8BDFF20F8BD000088130020000200209C13002074
:403700005A0200206C0200205502002010B50848FF244078002809D102F0F0FA012805D1FFF796F80720FFF7DDF90024204610BD9C13002038B5FFF79FF9012801D0002009
:4037400038BD02F0DBFA00280AD0114C6078C00703D000F05EFB012802D0A07E002801D0FF2038BD617800290FD0684603F08AFD022806D96846008802F01DF9012002F0EA
:4037800063F90320FFF7AEF9D9E70020F7E700009C13002038B5FFF76FF9224C2178012911D0062813D0032836D007280AD100206946087002460120FFF75CF8FFF75CF972
:4037C0000128FBD138BD20780128FCD038BD02F059F9FFF751F90128FBD120780128FCD0A12424012046FFF711F801210E4A83079B0F1170022BE9D15288002AE6D00143F4
:403800002046FFF709F82046FFF700F8410849002046FFF701F838BD02F038F90120FFF761F938BD010200205A020020F8B50646002402F0E1FE0546304602F0F5FE00211E
:403840000346012632468A40174610462F401840002F03D0002801D1224394B2491CC9B20529EFD32046F8BD70B500252C460A4E03E0002C01D0002000E03046007900287F
:4038800003D02046FFF7D2FF0543641C2406240EEFD0284670BD0000BC1300201CB50020694648706846FFF7DDFD01AA69460A20FEF7E0FF6946042008561CBD10B50C464C
:4038C00001F076F9002809D00179002906D0C1788078224602F03CFB002010BD022010BD0148007870470000881300204030C07E002800D00120704700B500F001F800BD44
:4039000088214843064940186030417F491CC9B24177052901D300214177C8B2704700009C13002013B501F043F904000BD001F0CEFC002807D0214601AA0A310620FEF7F3
:4039400099FF00201CBD02201CBD000010B50C4601F02EF900280AD001F0B9FC002806D0224604490A20FEF785FF002010BD022010BD000071130020F3B581B007460146A1
:403980000026029802F030FE0446002F01D0002500E0154D002D21D0284601F03FF9032C04D13946029802F049FE06463846029901F0D2FF032C06D0002C10D00121384693
:4039C00001F04CFA03E03146384602F0EBFF284601F090FE0221284601F0A6FEFEBD3846029901F0B9FFFEBDBC13002070B50446002503F0DDFB002801D00C2070BD207859
:403A0000611C02F09FFBFF2802D01F25284670BD02F0ECFBFF2804D02178621C01F00EFFF4E70725F2E710B503F0C2FB002801D00C2010BD02F05EFB002010BD70B50D46C5
:403A4000044610210BF0CAFC1021601806460BF0C5FC334610221946204603F0D5FB102130460BF0BBFC02202870204604F0D4F970BD70B504464078217802028006850FE1
:403A8000E0781143A67809050002090D0643084601F08EF8002812D0022D10D0032D0ED0002E08D00179092909D0002907D0214600F0A1F870BD0089002104F0E2F820465B
:403AC0000BF04CFD70BD0020704770B50446002503F06EFB002801D00C2070BD2078611C02F030FBFF2802D002F072FA00E01F25284670BD10B504F037FA00F0F6F800200C
:403B000010BD10B5044600786178E2780843A17811430843217908436179084305D003F039FB002803D00C2010BD122010BD204602F050FC002010BD10B5044803F054FC1D
:403B400002F050FA00F004F8002010BD58130020F8B5114D00266E706E736E716E76AE76EE766E75AE70EE70AE712F46EE730120B03778723F2078719B20B87100F00AFA04
:403B80000024204601F06AFB641C2406240EF8D03E72FE71AE73F8BD9C13002070B505460E46084602F028FD0446304602F03CFD0121A9400A46224001400A4301D001206C
:403BC00070BD002070BD10B50446084602F02CFD0121A140014201D0012010BD002010BD10B5FEF749FF032804D101F04FFF0120FEF778FF10BD70B5044600790D460928DA
:403C00001CD000281AD020464030817E491C8176204601F06FFDA078FFF76EFE064602462946204600F00CF8002806D1A0783146FFF76AFC28460BF091FC70BD0846FAE77F
:403C4000F7B5054648780C468006870FC8788978000282B0014368468180284601F042FB060007D021462846049A00F091FB304605B0F0BD384600F039FC0746034601AA93
:403C80002946204600F0CAFA68468088231DC0B20090A878FF22049902F066F8684680883B46C2B2A878049902F010FCDFE770B5002500242846FFF7B9FD060010D0304645
:403CC000E040C007C00F07D02146284601F037FE21462846FFF750FE641CE4B2052CEED36D1C2D062D0EE4D070BD10B502F07AF9FFF72EFF0BF09AFC002010BDF8B50024A7
:403D000000F081F80123012800D10124104F00203E4620360425082203E0002801D0002100E031460979002907D001290BD002290BD0114681402143CCB2401C0006000EE0
:403D4000EBD07C70F8BD1C43F7E72C43F5E700009C13002010B5FFF7D1FF10BD10B50B4681791943817103D08078114602F072FB10BD10B582798A43827102D1807802F04F
:403D800081FB10BD70B5FF25D53502242846FEF73DFD0C4A9178002901D0022906D1137852789A18282A01D9032402E0032900D101244105490DE00201432846FEF72CFD9D
:403DC00070BD00005602002010B500F022F8002807D0012805D0032801D0042801D0002010BD012010BD014610B50020C90701D000F009F810BD014610B50020C90701D026
:403E000000F001F810BD10B52020FEF7FFFC000A10BD10B51820FEF7F9FC410501D5042010BD4007800F10BD38B5044640060CD5684601F03BFE0220FFF78CFF072002F077
:403E4000EDF96846007801F071F9200613D5FFF7E0FF01280FD1684601F028FE6846007800F09AFA072002F0D9F9012001F0AAFC0220FFF76FFF38BD10B5034A0178117056
:403E800002F0DBF9002010BD5602002010B50446FFF7B9FF002801D00C2010BDA27B01211848002A827801D00A4301E05208520082706279012A0FD0C17849084900C170DF
:403EC000207901280CD06188208802F0D9FF2080207904280BD00DE0C2780A43C270EFE7E01D02F05FFA0848808C208002E0E01D02F058FA054920798870204602F0ACF9CA
:403F0000002010BD9C130020481300205602002038B50478FFF777FF844201D10C2038BD002C18D0072069460870FFF74DFF012807D10121684600F08DF8012801D0092037
:403F400038BD6846007802F069F9FFF71BFF02F0B3F9012010E0FFF737FF012806D1684601F0A4FD6846007800F04AFA072002F055F902F095F90220FFF7ECFE002038BD4F
:403F800010B5034A0178517002F03CFA002010BD5602002038B568460BF076FA002801D01F2038BD01210098C90201804180002505714571857107214173857302F04CF9DC
:403FC000009C202200212046FDF75AFF25702A460021601CFDF754FF204602F02EF9204602F010FA00980BF0B9FA042200210248FDF746FF002038BD56020020034608480F
:4040000000B5834209D8184600F0D2FD002804D00089984201D1012000BD002000BD0000FF0E0000074A9179491C8906890E917138220A4092014907090E1143084302499F
:40404000084070479C130020FF0E0000C006C00E70470000F8B507460E4600240D4803E0002C01D0002500E005462979002905D0641C2406240EF3D00020F8BD204601F0B8
:40408000EDF82E712046FFF7CDFF28813C700120F8BD0000BC13002010B503F0E9F80222002100F003F801F045FF10BD10B5094B40074907000F090F185A595A4018504388
:4040C000C0086421FDF732FE002800D1012080B210BD00006A1B0100F7B53D20405C88B016460C46002829D030786946087200252046FFF7FBFB012800D00125204603A98B
:4041000038300191009023460327A17E34332A46206A03F083F902A8089900900B46019120463A4603A9243003F050F802466846007A3070204601F07DF810460BB0F0BDFA
:40414000FFB587B00C4605461078694608723D20005D1746002826D000262046FFF7C6FB012800D00126204603A93830019100902346A17E34333246206A03F04FF902A8FC
:404180000090291D019120462B1D03A924300A9A03F01CF802006846007A388002D1204601F048F810460BB0F0BDF7B53C20405C88B015460C4600280CD0287869460872DE
:4041C000002806D000262046FFF790FB012803D003E01F200BB0F0BD0126204603A938300191009023460327E17E34333246E06903F014F902A8089900900B46019120462D
:404200003A4603A9243003F013F802466846007A2870204601F018F81046DBE7FFB505463C20405C87B016460C46002810D0084601F058F801280BD03088694608830028E8
:4042400009D000272046FFF751FB012805D005E000200BB0F0BD0220FBE70127204602A93830019100902346E17E34333A46E06903F0D4F806A80090291D019120462B1DE9
:4042800002A924300A9A02F0D3FF02466846008B30806846008BA870000AE870204600F0D3FF1046D5E770B50D460446FFF71EFB01280AD0E87AA97A00020143A07801F0D1
:4042C000F7FC012808D0002070BD00222421204602F020FD242070BD28214C200155204600F09AFB282070BD002801D0002000E003484030C07F012800D000207047000002
:40430000BC1300200146002049070ED50021084B03E0002901D0002200E01A461279022A04D0491C0906090EF3D0704701207047BC1300200146002049070ED50021084BDC
:4043400003E0002901D0002200E01A461279022A04D0491C0906090EF3D0704701207047BC13002010B5044680346068002803D00BF008F90020606010BD403041707047A0
:404380004030817070474030017070470171704792001018C166704770B53C2501F02CF9040004D020460021433001F021FC2946204600F0C0FB002C02D0A07801F0AEF8E3
:4043C00070BD000010B5002801D0002000E00348002802D0008903F09AFC10BDBC13002010B5002801D0002000E00448002804D00179072901D100F041F810BDBC13002058
:4044000010B501F0F9F8002802D0807801F086F810BD00207047000070B50546008A00281ED010491122897A1140C90618D5294640314A8A098A521C4A4392B2D10800D1F4
:404440000121540801E0621A94B2A042FBD9FEF787FF012804D1298AA878224601F018FD70BD00004813002000230B60052A04D292001018C26E0A60C366704738B5044605
:4044800000200090A079002814D14020015D052901D00E290ED168460BF006F8002809D12046009902F01EFC03481021C28A2046FFF754FC38BD00004813002010B50B46A5
:4044C00004460146184602F0EDF8002802D020460BF04EF810BD13B5044601AA11460620FEF7C8F96846818861811CBD002800D10220704770470000F8B504462346401DE0
:40450000543300909A1EA078911E01F0DEFA25464035A88A298A8000FDF708FC401E81B2688A884203D96982A07802F01EF820460021433001F05CFB8020FEF767F9E8810B
:4045400002F096FEE989891C8AB26179FFF7AEFD01F0F0FC02F08CFE2A8A6179FFF7A6FD074601F0D9FC688A00280BD0FF26F1363046FEF74BF90321090201433046FEF786
:404580004BF902E0002001F0DEFFFF206130FEF73DF96E8A002E0BD070431049FDF726FC0004000C01D0401C80B20D49488002E00B4800214180288A704381B2A07801F0A4
:4045C0002FFF2837B9B2204602F05EFCE98AA07801F07EFEA07801F0E2F9F8BD710200005A0200207FB504468034616805460E46183108226846FDF73AFC314620310822BA
:4046000002A8FDF734FC102168460AF0E7FE6068102108300AF0E2FE60682B46083024331022694602F0F0FD7FBD10B504460821FFF79FFB10212046FFF79BFB207905286E
:404640001FD006281DD008281AD12189002003F0D7FA072020712046FFF748F9014620464030012913D00E21017000210176204600F060FF2046FFF775FE2046FFF7CCFE26
:4046800010BD20890122002103F09EFAE1E70521EAE70000FFB581B01F4604460821FFF768FB10212046FFF764FB2079082803D0092804D0042203E00422012501E00922F2
:4046C0000025204600F0FAFD264600204036307022712046FFF746FE0398002D02D0012808D00BE001280AD120890022029903F06BFA04E02189029803F082FA012700204C
:404700003076012F04D0204600F014FF05B0F0BD02983073204602F029FB054605480121C28A2046FFF71AFB002DEFD109202071ECE700004813002070B50C460546FFF727
:40474000D5F8012809D108212846FFF712FB0023012221462846FFF79DFF70BD10B5044600F0ACFD2046FFF7FDFD00214034217010BD70B505461A24FFF7B8F8012809D1AD
:4047800008212846FFF7F5FA0023012221462846FFF780FF70BD0000F8B50446002000900E4668460AF080FE002801D00D20F8BD8420005908212030009D00F0F4F920466E
:4047C0000421383000F0EFF9002E02D1204600F0B3FD2946204602F015FA0E480821C28A2046FFF7BBFA204600F00BFF25464035002808D0204600F023F8002801D00920C8
:4048000028700020F8BD08202870204600F072FFF7E7000048130020014610B540310A460978082906D0092907D00A2901D100F091F810BD0B20107010BD00F001F810BD54
:4048400070B50446007925464035052805D0062803D008280FD00C2070BD03220621204602F058FA0D480821C28A2046FFF776FA1120287010E006202873204602F076FA37
:404880000646AA8A0A20424301212046FFF766FA002E01D109202071002070BD4813002038B504460020009068460AF0FDFD002801D00D2038BD2046009D00F08BF9082026
:4048C0002071204600F038FD2946204602F0CCF900213D2001550F2040210855204600F009FF002038BD00B5024600F0E7FC10214032117000BD10B50446FEF7F7FF012808
:4049000009D04020005D112805D100231A4606212046FFF7BFFE10BD10B5FFF786FE10BD38B504460021684600910AF0BDFD00280CD12046009902F00EFA05480821C28A2B
:404940002046FFF70BFA0D204034207038BD00004813002038B504460021684600910AF0A3FD002801D00D2038BD2046009902F0E7F905480821C28A2046FFF7EFF90C20E6
:4049800040342070002038BD4813002000787047F8B50025002801D0002400E01A4C002C28D0204600F093FC002823D0207903281CD005281CD026464036B18AA07801F0EC
:4049C0003DFDB078012815D10021204601F087FE274680373868002802D00AF0D3FD3D600020B0702079072805D007E0042000E006202071F8BD2046FFF70EFD0221204600
:404A000000F092FEF8BD0000BC13002010B54C22115400F046F810BD10B50446FF21FFF7A8F909202071A07801F038FD10BD000038B5FF216A461180002801D0002400E0E9
:404A4000064C002C08D011460620FDF713FF684601882046FFF73FFD38BD0000BC13002010B504468079002809D022214C200155FF212046FFF77DF9204600F012F810BD7D
:404A800010B5037902464032002B03D01173092B02D003E0002100E02221117300F001F810BDFEB504460089002701902781207926464036002817D0012815D002280AD18F
:404AC00012E002AA6946204601F0DAFD002807D100980AF04DFD204601F0FAFD0028F0D02046FEF725FDB776254680352868002802D00AF047FD2F606868002802D00AF044
:404B000041FD6F60317B002902D0019800F044F8A078002100F05CFF2046FFF7BDFAA07801F0B0F8A07800F0F9FC0B20FFF712F900F038FCFEBD70B50E46054602F094FB67
:404B4000044606702846FEF7D1FE014601204140204661700C3001F034F8002D10D02889608028464030C1782171002E10D169796171018AE180418A2181808A608107E095
:404B80001820FDF743FEC005C00F207100206080204602F0DEFF70BD0A4610B50146002003F0CDF810BD10B50AF0F4F910BD000000B50146FFF74AFA002801D0002000E058
:404BC0000348002802D002898A4200D0002000BDBC13002038B5044680346068002806D168460AF071FC002801D100986060606838BD000010B5014600F074FB0128887813
:404C000002D0FEF77DFE10BD88214843024940186030007F10BD00009C13002070B5054604464035A87F012811D1A1788820084A484380186030067F3046FEF7AFFF0028F6
:404C400005D10220A877A078314601F0E1F870BD9C1300200EB500220A216B460292198100905A811046029B00990AF0FDFC0EBD10B50E4CE079002816D0FFF718F80C4844
:404C8000827FC17F808B00F095FB01280CD10020E07100F014FF0446AC20FDF7B7FD010B02D0204600F032FA10BD00004C1400209C13002070477047490510B5490F0B0090
:404CC000FDF7D4FA060704080C0C0F073E21FFF79DFE10BD0821FFF7D3FE10BDFFF7E1FE10BDFFF7BDFE10BDF8B507460025002D01D0002600E0204E00F096FE3046403016
:404D000044890021418100F0B5FE304600F0DFFA01282CD1A00702D52846FFF739FEE00602D52846FFF784FEA00602D52846FFF791FF600601D500F0F1FA200602D528460C
:404D400000F01CF8600702D5284600F023FA380402D52846FFF744FB780402D52846FFF731FBE00703D021463046FFF7A5FF6D1C2D062D0EBBD0F8BDBC130020F8B50028B1
:404D800001D0002400E0204C002C39D025464035A878012834D1E98AA07801F099FA2046FEF7A4FD01282BD002F062FA2A8A6179FFF77CF9064601F0AFF82836B1B22046CE
:404DC00002F062F8E98AA07801F082FAFF206130FDF71CFD6E8A0D4F0146002E11D0304648430B49FDF702F80004000C01D0401C80B27880288A704381B2A07801F010FBB2
:404E0000F8BD0020F5E70000BC1300205A0200207102000038B5002801D0002400E00D4C0020009068460AF03FFB002811D12046009901F0C5FF607E0221084360760648E0
:404E40000421C28A2046FEF789FF0221204600F06BFC38BDBC1300204813002070B50D46124A010001D0002401E014462034002C1BD0204600F036FA01280AD18820484372
:404E800080186030007FFEF789FE002801D101F0F7FE20464030817E491B8176204600F029FC2089294602F0ECFE70BD9C13002070B503460088FFF77BFE040013D000F018
:404EC00006FA00280FD02079092819D02546997840352973204601F049FF0646A878012803D0AA8A02E0022070BDEA880A20424301212046FEF732FF002E01D10920207176
:404F0000002070BD0EB5002217216B460292198100905A810120029B00990AF0A5FB0EBDF8B5184E0024F079002820D10025AC20FDF76CFC000B21E0204600F075FEFDF732
:404F400065FC07462A46214600F034FA01280FD00D48012187838577C477F171002D01D0002000E02030002801D000F0C3FBF8BDAC20FDF74BFC000B641CE4B20028DBD1C6
:404F8000F8BD00004C1400209C13002010B50088FFF70EFE002809D0014640310C460978082905D00B2903D00C2010BD022010BDFFF746FC002801D009202070002010BD46
:404FC00070B503460088FFF7F3FD040008D0254640352878082805D00B2803D00C2070BD022070BD8420005910220830991CFCF73EFF2046FFF7F6FA2878082804D0204624
:40500000FFF7A8FC002801D00A202870204600F071FB002070BD000010B50C46002121700088FFF7C5FD03000BD000F050F9002807D009481121807A0840C00603D411205A
:4050400010BD022010BD022020701A8A1889002102F092FE002010BD48130020F8B50F46002100910088FFF7A3FD040012D000F02EF900280ED0E079410641D4617E0226E1
:405080004A07002A08DB8907402500291ADA2843E07135E00220F8BD02F0E6F80021017021894180A1898180217E4170E189C1803E7005460178134802F0C4FB284602F007
:4050C000FEFD1DE0204600F013F9012806D068460AF0EAF9002803D00720F8BD2A20F8BDE07900992843E071204601F069FE607E0421304360760448C28A2046FEF72EFE1F
:405100000020F8BD1D040000481300203EB500220F236C460292238100910190628169460EC900200AF0A0FA3EBD000070B5054600F062FA040027D0032020712546002697
:405140004035EE76E6702046FFF7D6F901F0A8F80920FEF7FFFDA07800F082FD0121204600F0E2FA2E706E70AE7000212046FFF7E2FC0749887B401C8873A078FFF74AFE5A
:40518000012001F0BFF970BD284601F087F970BD9C13002010B5002801D0002400E00A4C002C0FD020464030417802290AD1002141702046FEF79AFB002803D1022120461E
:4051C00000F0B2FA10BD0000BC13002070B503460D460088FFF7ECFC04000BD000F077F8002807D012481121807A0840C00603D4112070BD022070BD20464030418A008AB0
:40520000491C41430804C10C5888884201D2122070BD20822079072802D12046FFF7FCF8022028702089002102F0CEFD002070BD48130020016A491C016204D1817E491CCE
:405240004906490E81767047C169491CC16104D1C17E491C4906490EC176704770B500250646002801D0002400E0114C002C1CD0882200212046FCF703FEA670002026464D
:40528000207140363070204600F018F8204601F01BFA084820820848B577807A1121084000D001202075012070BD002070BD0000BC130020B80B00004813002000210162C1
:4052C0008176C161C17620300177417770470079002805D0012803D0022801D001207047002070474030807F002800D00120704740300078002807D0012805D0052803D0E7
:405300000E2801D0012070470020704710B5807801F08AF9002800D0012010BD10B500F0CEFB0446AC20FDF771FA010B02D02046FFF7ECFE10BD000070B50546044640358D
:40534000A87F002823D1FF206075A0788821144A484380186030417F8823491CC9B24177A078584380186030052901D300214177A0788821484380186030467F0677A1789C
:405380003046FEF70BFC002802D00120A87770BD0220A877A078314600F03AFD70BD00009C1300200020401C0006000EFBD0002070470000F0B515468207920F85B0C004CC
:4053C000C00E02926A469080002D01D0002400E0514C002C29D0084600F026FC03906846808800280BD00298012845D0022843D003280CD03D20005D012872D086E00398D9
:40540000FDF704FA01462046FFF765F87EE00020029002A80AF028F8002807D03D20005D012876D12046FFF705FF72E06846029E8388324600210398FDF75EF90398FDF764
:40544000E5F901462046FFF746F8284600F0B9FA01AA21463046FEF73FFE002806D030460AF072F83D204C21085528E0F5773146204601F077FA4CE00020009027896846B6
:4054800009F0E2FF002802D0002005B0F0BD6846009E8388321D00210398FDF72DF90398FDF7B4F901462046FFF715F8284600F088FA25464035287E00280CD103E020467A
:4054C000FFF7AAFA25E001AA21463046029BFEF737FE002806D030460AF02CF83D202873EDE710E00298FFF705F8390A000101433770717068468088B070000AF07030461D
:40550000FFF700FD05E02046FFF794FE284600F058FA0120B9E70000BC13002010B5044A917B002901D0491E9173FFF797FE10BD9C130020F8B5074606464037B87F00287E
:405540003DD0B0788821009048431F4945186035287F0099FEF737FB012831D0287F401CC4B2052C00D300240020B877FF276F772F77A87702460146009800F0C9FD717DBB
:40558000FF2903D0304601F060F8777501F078FB00252F462246694630460097FEF764FF0099002902D03046FEF725FB641CE4B2052C00D300246D1CEDB2052DEAD3F8BDA2
:4055C0000320B877F8BD00009C13002010B502460021084B03E0002901D0002000E018460479944204D0491C0906090EF3D0002010BD0000BC13002000B50120FFF7E6FF17
:4056000000BD10B5044601F02FFE2189018080346168416061682831816002F00BFB10BDF7B50646087982B00C46092807D0A078F0770846FFF756FE012806D010E03046EE
:4056400009F096FF022005B0F0BDA1788820284A484380186030007FFEF7A0FA012810D0A078FEF741FE01280BD037780121304601F0B3FA25462035062F36D00B2F0FD1D1
:4056800007E06846027C21463046FEF717FF0D20D9E72046FEF72AF9012801D1002028772046FFF7A7FA054604AA21463046FEF77CFD01205F2108556946087C0090A078B0
:4056C00033463A46294600F04FFB69460A7CA0780323294600F0FAFEA0782946FDF714FF304609F045FF0020ADE70120D7E700009C13002010B502464032937F0021002BBE
:4057000003D1927E002A00D00121064AD279002A00D000210279092A00D10121807800F0FFFE10BD4C14002070B50C460646FEF7DDF8002814D1012C0ED935464035A87822
:4057400000280DD1687802280AD03079092807D03046FFF7DBFD0446204600F00EFE70BD0124F9E770B50D4601280BD0082808D1A8241146B020FDF74FF829462046FDF7F0
:405780004BF870BD2020FAE710B501460820FDF743F810BD10B50446FF20F130012C01D1FF20D530002200F006FF1020FDF72EF80349A043088001461020FDF72DF810BD41
:4057C0005E02002010B504461020FDF71FF80449A043088001461020FDF71EF810BD00005E02002010B50446012802D0082C07D102E0FF20D53001E0FF20F13000F0D0FE5E
:405800001020FDF703F804492043088001461020FDF702F810BD00005E02002010B504461020FCF7F3FF04492043088001461020FCF7F2FF10BD00005E020020F8B5074661
:405840000120B84085B214460E46012229467C2000F0B1FE32462946782000F0ACFE6078217800020143E078A5780002054360792679000206430C2047430D2080013C1853
:405880002046FCF7C9FF241D29462046FCF7C4FF201D3146FCF7C0FFF8BD401880B270478B00034310B5D10191201943C000FCF7B3FF10BD70B505460C46407829780002DB
:4058C000014341200001FCF7A7FFE878A978000201430A48FCF7A0FF60782178000201438320C000FCF798FFE078A1780002014302480830FCF790FF70BD0000140400001A
:4059000070B50D46044681B201208002FCF784FF210C0448FCF780FF81202946C000FCF77BFF70BD0404000070B5054600242846FCF76CFF641CA4B2102CF8D370BD10B5CD
:405940000C460146B020FCF767FFFF2021462D30FCF762FF10BD704710B50C460146B020FCF75AFF204600F051FE0021FCF754FF10BD70B50C46054600F005F821462846D3
:40598000FFF7DDFF70BD10B50C460146B020FCF743FFFF2021462930FCF73EFF10BD10B50146B020FCF738FFFF20002220211D3000F001FE10BD10B50146C020FCF72CFF0E
:4059C00010BD010210B54D310020FCF725FF10BD10B504020029014608D0B020FCF71CFF214675310020FCF717FF10BDB020FCF713FF512000214001FCF70EFF0021034888
:405A0000FCF70AFF21467631ECE70000240A000010B554210020FCF7FFFE10BD10B553210020FCF7F9FE10BD10B5034908884880FFF7C8FE10BD00005E02002010B550218C
:405A40000020FCF7E9FE10BD10B50E2400280CD0C420FCF7DBFE20430146C420FCF7DCFE51210020FCF7D8FE10BDC420FCF7CEFEA043F1E710B502484088FFF7CFFE10BD6C
:405A80005E02002010B5FCF7E1FF10BD10B552210020FCF7C1FE10BD884201D8081A03E00022D243101A401880B2704710B504461820FCF7ABFE8004400F207010BD10B508
:405AC000B020FCF7A3FEC0B210BDF8B50E4601461C461546B020FCF79FFEFF20E930FCF795FE0746FF200130FCF790FE3080FF200930FCF78BFE2880FF200530FCF786FECB
:405B0000208079070698490F0170F8BD10B5C820FCF77CFE10BD10B50C46002812D05820FCF774FE2070000A60705C20FCF76EFEA070000AE0706020FCF768FE2071000A21
:405B4000607110BDFF20C130FCF760FE2070000A6070FF20C530FCF759FEA070000AE070FF20C930E8E7000000B5024A00F004F800BD0000FF7F000000B51346FFF78CFF56
:405B8000984201D8022800D2002000BD10B50146B020FCF741FE0248FCF738FE10BD0000080A000010B52420FCF730FE10BD10B50146B020FCF730FEFF202130FCF726FE7E
:405BC00010BD70B504466820FCF720FE06466C20FCF71CFE05467020FCF718FE2670310A6170A570290AE1702071000A607170BD10B50446012905D01820FCF707FEC00B2A
:405C0000207010BD4820FCF701FE8007C00FF7E710B50146B020FCF7FFFD0248FCF7F6FD10BD0000280A00000120C0027047000010B50146B020FCF7EFFD0248FCF7E6FD0A
:405C400010BD00000C0A000010B50C460146B020FCF7E2FD0321A0014902401810BD00008821074B414310B5C918FF2260314A770A7700228A77114600F04AFA10BD000078
:405C80009C13002088225043074A10B58018FF21603041770177002181770448418EFF201D3000F07DFC10BD9C1300204813002010B50C460146B020FCF7AEFDFF202530EA
:405CC000FCF7A4FD0222214600F002F810BD000010B50023884201D8081A03E00024E443201A4018044980B2884201D8824200D90123184610BD0000FF7F000010B5C4202C
:405D0000FCF784FD0006C00F10BD000010B50348FCF77CFDC007C00F10BD00002C0A0000F8B503465078167800020643D07895780002054350791779000288240743002988
:405D400000D098241946B020FCF766FD31462046FCF762FD201D2946FCF75EFD204608303946FCF759FDF8BDFFB581B014460D4606460A9FFFF768FF3B460021049AFCF7B7
:405D80002BFD02484019845505B0F0BD6202002070B506460D4611242520A40108214001FCF73AFD2B46324600212046FCF714FD70BD70B5212405466401FFF72FFE1023D1
:405DC0002A4600212046FCF707FD70BD10B5044640782178000201438F20C000FCF71CFDE078A178000201430148FCF715FD10BD7C04000010B50C460146B020FCF70CFDEB
:405E0000802021460143FF202930FCF705FD10BD70B50D460146B020FCF7FEFCFF241D342046FCF7F3FC01090901FF202943013001432046FCF7F0FC70BDF8B500242646E2
:405E4000012807D0032802D0052808D105E002240A2604E004240C2601E004240D26492701463F013846FCF7D7FC25204001FCF7CDFCC5B228462042F7D0252031464001E2
:405E8000FCF7CAFC00213846FCF7C6FC2846F8BD70B50D46044601461646B020FCF7BCFC512029464001FCF7B7FC31460648FCF7B3FC032189030820FFF794FC210275317D
:405EC0000020FCF7A9FC70BD240A000070B50D4604460146B020FCF79FFCFF2029461930FCF79AFC21024B310020FCF795FC70BD70B5491E8CB205460146B020FCF78CFCB1
:405F0000FF2021461930FCF787FC29024C310020FCF782FC70BD0000054910B5884200D908460146FF206130FCF776FC10BD0000FF0F0000054910B5884200D90846014630
:405F4000FF206530FCF768FC10BD0000FF0F000070B588251446002900D098250146B020FCF75AFC2846FCF751FC2070000A6070281DFCF74BFCA070000AE0702846083052
:405F8000FCF744FC2071000A607170BD10B51446024611200B4680010021FCF709FC012C01D1FFF735FD10BD10B504460920C001FCF72CFC2070000A60700448FCF726FCBF
:405FC000A070000AE070FFF723FD10BD840400000121814010B589B200227C2000F0EBFA10BD000070B5FF210120FFF7D3FBFF210820FFF7CFFB3020FFF7E4FB8021002071
:40600000FCF70AFC002211460320FCF733FC374DFF20A98DD530FCF7FFFB0024FF26F1362146B020FCF7F8FB298F3046FCF7F4FB2046FFF727FE641C2406240EF0D0FF2005
:40604000A98FF930FCF7E8FB28481030044600F079F9204600F0BEF900F04CF8234CB82040346188FCF7D8FBA188BC20FCF7D4FBE188C420FCF7D0FBFF20698EE130FCF7F6
:40608000CBFBA12000210001FCF7C6FB3920FFF7C5FBFFF7C3FC93200721C000FCF7BCFBFFF7B6FCE020FFF73FFCE820FFF73CFCF020FFF739FC0020FDF7EEFF618A0C48F0
:4060C000FCF7AAFB0A482821001DFCF7A5FBFF210131AC20FCF7A0FB832000218000FCF79BFB5B210020FCF797FB70BD48130020140A000010B500217C20FCF78DFB00213F
:406100007820FCF789FB74210020FCF785FB10BD70B50D4601461446B020FCF77DFBFF261D363046FCF772FB01090901FF20294301308143002C01D1102041403046FCF70D
:406140006BFB70BDF3B589B0FF2001900D208001009048780D7800020543C8788E780002064348790979000201437C200791FCF74DFB06907820FCF749FB059074210020F6
:40618000FCF74AFB18480024049026E00120A04087B20098FCF73AFB03900098FCF736FB02900098FCF732FB039A29465140029A72401143079A424011430BD1069807427D
:4061C00008D00598E040C1070998C90F814201D1019405E0641C0498E4B20078A042D5D801980BB0F0BD00008813002070B5FF257C20FCF70BFB0849002401230A7805E067
:406200001946A140014205D0641CE4B2A242F7D8284670BD2546FBE78813002010B504461820FCF7F3FA0721C90288436107890C01431820FCF7F0FA10BD10B50446E02083
:40624000FFF772FB20782246401CC3B20021E020FCF76EFA10BD000010B5044641790079042817D040000843A17B032901D8C9000843617B4A010243A07901020720114389
:40628000C00201431820FCF7C7FA21881C20FCF7C3FA10BD08460149E5E700000204000010B5012000F02EF90120FFF78BFA41210020FCF7B1FA10BD10B5002000F022F9AA
:4062C0000120FFF7ABFA40210020FCF7A5FA10BD10B50C460146B020FCF79EFAFF2021460D30FCF799FA10BD70B50C4601461E461546B020FCF790FAE92021468000FCF786
:406300008BFA75202946C000FCF786FAEB2031468000FCF781FA6C433B20A1B20001FCF77BFA70BD70B50C4601461546B020FCF773FA21468420FCF76FFA29468020FCF78C
:406340006BFA70BD10B504464078217800020143FF20C130FCF760FAE078A17800020143FF20C530FCF758FA6079217900020143FF20C930FCF750FA10BD70B5A124054668
:4063800024012046FCF742FA012D07D041084900814202D02046FCF73FFA70BD014601221143F5E710B5044640782178000201436820FCF731FAE078A178000201436C200F
:4063C000FCF72AFA60792179000201437020FCF723FA10BD10B5044640782178000201435820FCF719FAE078A178000201435C20FCF712FA60792179000201436020FCF7DE
:406400000BFA10BD10B50446E820FFF78DFA20782246401CC3B20021E820FCF789F910BD10B50C460146B020FCF7F6F921460248FCF7F2F910BD00001C0A000010B50C4611
:406440000146B020FCF7E8F9FF2021460530FCF7E3F910BD70B5054688000521FBF766FC84B22946B020FCF7D7F921460448FCF7D3F9290272310020FCF7CEF970BD0000E9
:40648000040A000010B504460146B020FCF7C4F9210273310020FCF7BFF910BD10B504460146B020FCF7B8F9210270310020FCF7B3F910BD10B504460146B020FCF7ACF9C1
:4064C000210271310020FCF7A7F910BDF8B505461E4614460F46084600F098F800902802A1000843304304462946B020FCF794F921460098FCF790F90148C0194655F8BD6F
:406500006702002010B50446B820FCF77FF98005800DA102014389B2B820FCF77DF910BD70B50D460146B020FCF776F9FF241D342046FCF76BF940218843A901014320469C
:40654000FCF76AF970BD70B5A124054624012046FCF75CF90222002D01D0104300E0904301462046FCF758F970BD70B50D460146B020FCF751F9FF2029460930FCF74CF97F
:40658000A12424012046FCF741F90222002D01D0104300E0904301462046FCF73DF970BD70B50C460546FCF731F9204301462846FCF732F970BDF8B516460D460746FCF755
:4065C00025F9014600202C0003D104E06408401C80B2E207FAD08640A9430E43B1B23846FCF71AF9F8BD0000024A1018405C8007800F70476702002010B50146B020FCF7B1
:406600000BF9FF202D30FCF701F910BD8000FF30413070470246FF20052902D201484018805C70476202002010B50146B020FCF7F3F8FF202930FCF7E9F810BD0A4600B550
:4066400001461046FFF7E6FF00BD38B50C46054600216846009108F027FF002804D1009928464C7000F09EFB38BD10B5044680780021FFF72DFE01212046FFF755F810BDBE
:40668000436E002B0CD00B60014660318B781370826E4266CA788A700021816608467047FF20704710B50346446E6033002C04D0846E002C04D0FF2010BD41669A7001E0DF
:4066C0008166DA70002010BD0021416681667047406E002801D000207047FF20704770B50446C0790D46810610D5DF210840E07100F0BAFD0570218941804034218A81801B
:40670000618AC180A18A018101F0F6F970BD000010B50446FEF7E6FD01280AD1A1788820054A484380186030007FFDF737FA012801D000F0A5FA10BD9C13002070B50D4684
:406740000446FDF7D3F801281CD02079042801D0072816D1E879AE7900020643A0783146FFF7A6FA012813D03246691C204600F035FA02212046FDF700FE01212046FEF7D1
:40678000D3FF70BD01222421204600F0C3FA70BD28214C2001552046FEF73EF970BD70B50D460646FDF77FFD002847D120213046FDF7DFFA3446687840346073E87820222D
:4067C0000002E081A9780843E0816879010228790843218A814203D0F1791143F1712082E8790102A8790843618A814203D0F1791143F1716082687A0102287A0843A18A46
:40680000E180814203D0F1791143F171A082A08A218A8000FBF78AFA401E618A80B2814200D9608201213046FDF7AAFDE87AA97A000201430022304600F0DCFA70BD0000D2
:40684000F8B50C460546FDF751F8012849D0294EB07AC00709D02846403000900078002805D0102805D01F212EE01A212CE0002700E001272846FEF7ADF9002823D02E46C2
:4068800080360822611C7068FBF7F1FA7068617A20300172A17A417270682146183008220B31FBF7E4FA21462846042213313430FBF7DDFA39462846FDF76EFF002810D102
:4068C000002F0FD012E007210322284600F022FAF28A08212846FDF741FA11212846FDF752FDF8BD06212846FDF750FD009801210176F8BD4813002010B5FDF78DFF10BDAE
:4069000038B504460020009020790D46042801D007281BD12046FCF7E9FF012817D0684608F0C2FD002811D10C486A78807A00991040112210402075607E0822104360764A
:40694000204600F079F92046FDF763FD38BD08222421204600F0DEF938BD0000481300207047000070B506460D460846FEF70EF804463046FEF7ABFC00280CD0142C04D359
:406980002946304600F0C7F805E00549A0000A58294630469047284608F0D6FD70BD00007C1B010070B50D460021002801D0002400E00C4C002C14D020464030C177807F49
:4069C000032802D12046FEF7B5FD2046FFF7A0FE142D04D20449A800095820468847FEF7E1FC70BDBC130020CC1B010010B5014640310C4609780E2903D1FDF751FF01205A
:406A0000207610BD10B54021095C0F2901D1FDF76AFF10BD4021095C0F2902D1002120304177704738B5044600220E4800920D46807A11210840C0060ED52046FEF758FC23
:406A4000012809D0684608F02FFD002803D12046009900F053F938BD2946204600F05BF838BD00004813002010B51021FDF781F910BD10B54978FDF75FFE10BD10B5FDF700
:406A80003AFF10BD012120304177704710B54021095C0C2901D1FDF743FF10BD10B54021095C0D2901D1FDF737FF10BD70B5044600790D46052803D0062801D0082802D193
:406AC0002046FDF74BFE68784C21085509212046FDF75CFC2046FFF7C8FD2046FCF706FF0128A07805D0FFF7D9FC2046FEF702FE70BDFFF7DFFCF8E710B50446FF21FDF7B2
:406B000038F916214C200155A078FFF7C7FC2046FEF7F0FD10BD70B50C460546FEF7E2FB002802D02078687570BD21782846FFF78CFD70BD70B5054648780C46032802D1E2
:406B40002846FDF716FE6078122803D110212846FDF70FF970BD704738B5044600200D46009004212046FDF704F968782076E8780002A081A9780843A08168790002E081BA
:406B800029790843E081607E04210843607680070CD4684608F088FC00281CD12046009900F00EF9607E022108436076E079410611D5BF210840E07100F056FB00210090B4
:406BC000017021894180A1898180217E4170E189C18001F074F838BD7047704770B50446C07815460A4600280AD00020E070C1B2A078FFF795F8A0782946FFF767F970BDF7
:406C00000120F3E770B50546042008700C468420415908222031601CFBF729F929462046042238310930FBF722F90D2229462046FEF7F6FC002070BD70B5054609200C46E5
:406C4000087008220021601CFBF71AF9287D607004480922C07AA07029462046FEF7E0FC002070BD481300200B4610B501460B20187001221846FEF7D3FC002010BD0000EA
:406C8000FEB50024164F03E0002C01D0002500E03D462846FFF71CFD00281BD15F20405D002817D16A4601A92846FFF7E9FC002810D1019869460A7806782946FEF7B0FC6F
:406CC000022E07D1A8780121FFF72AFC09212846FDF75CFB641C2406240ED5D0FEBD0000BC13002010B50B46122119708178D977014601221846FEF793FC10BD10B50B46D6
:406D0000132119708178D977014601221846FEF787FC10BD38B50546002000900C46684608F0C2FB002801D0072038BD00980D210170447002222946FEF772FC002038BD98
:406D40000B4610B501460520187001221846FEF767FC002010BD0B4610B501460620187001221846FEF75CFC002010BD38B5054600200090684608F097FB002801D01F2025
:406D800038BD009C022020704C20405D6070A878E0772846FFF769FC022229462046FEF73FFC38BD10B50B46072119708178D977014602221846FEF733FC002010BD00006F
:406DC00010B50B460A49044608880C221A704A795A709870000AD870C8881871000A5871062221461846FEF71BFC002010BD000048130020F8B50446403417460E4605463D
:406E0000E289617B8078FFF78DFA002F0DD100F02FFAE2896979FDF749F9FFF78BF8608A002800D00120FFF78EFBE388A08A984200D90346628A218AA878FFF755FAA08A3B
:406E4000218AC000FAF772FF81B2ED208000FBF7E3FCE089E188C0080A30081881B21920C001814200D90146A878FFF7E7FAA8783146FFF73DF801212846FEF755FCF8BD6C
:406E800000B500F01FF800BD10B50A4604460B491046FAF74BFF4034C01C218A80B2814200D208464900081A81B20548E182C089002802D0884200D2E08210BD7102000036
:406EC0008813002040184008704770B505460C46000702D5A0B2FDF707FFE80702D0200EFCF7A2FF70BD70B5054650C8FCF752FCFBF7BEFA2889C01F0300FBF7B7F90C0729
:406F0000130B171A1D0B0B200B100C0BA0B23146FFF7DBFF70BD204600F000FC70BDFDF7A7FE70BD2046FCF7A4FD70BDFCF7BFFE70BDFDF7BFFE70BDFDF7BDFE70BDE0B222
:406F4000FDF7EEFF70BD0000F3B5002483B0064627460094019408200294FBF757FC05460640400713D55020FBF750FCC0B20090700707D5009CA00803D1FBF7DFFA012850
:406F800000D10127002204200099FEF7EBFB28074ED5A820FBF73AFC0146654842890A434281002208200091FEF7DCFB300739D50098044340062CD5FF200930FBF726FC8F
:406FC000FF201D30FBF722FC8006C00F0190FF200930FBF71BFC00281BD00198002818D1544801214170FF20F130FBF70FFC0321090288430146FF20F130FBF70DFCA12028
:407000000001FBF703FC02210143A1200001FBF703FC00981021884303D1FBF78FFA012800D101270098C00602D50220FBF76AFDA8070CD53820FBF7E9FBC1B2B00702D5D0
:4070400008040443012700220220FEF78BFBE8071DD02020FBF7DAFBC0B20090F0070BD000980221000604430098884303D1FBF765FA012800D101270098800702D5022055
:40708000FBF740FD002201200099FEF76BFBE80605D50120FBF726FD1020FEF775FBA8062AD5FEF733FD244908800120FBF71AFD22490020087022490870FF200930FBF7B6
:4070C000A5FB0090FF201D30FBF7A0FB80060099C00F00290DD000280BD116494870A1200001FBF793FB02210143A1200001FBF793FB2020FEF748FB680602D54020FEF75B
:4071000043FB0720694608810020009601944881002F07D069460EC90498002804D0002008F07EFA05B0F0BD002008F09DFAF9E7FC1300205A0200206C020020010200209D
:4071400055020020F0B587B0054605A81E461746019100900C9C04AB06AA02A903A800F078F92846FEF725FE21463046FEF710FE6846017A0398FEF7C3FB05A904A8FEF7F7
:4071800099FB6846027E21463846FEF789FB07B0F0BD000070B50548C4782046FCF723FE05462046FDF7AEF8284370BD9C13002070B5054884782046FCF71DFE05462046DE
:4071C000FDF7B8F8284370BD9C130020F8B5069E1F463478231FDDB23B460095FFF7B2FF3819001FFEF7F2FD0520FEF726FE0446012229460798FEF7C9FE3570E00701D06E
:407200000020F8BD1F20F8BD70B51C4615460E46FEF7CFFD29463046FEF7BAFD0320FEF70CFE012229462046FEF7B0FE1F2070BDF8B5069D079E2C780094FFF783FF01200E
